{
  "contractName": "Payment",
  "abi": [
    {
      "inputs": [],
      "stateMutability": "nonpayable",
      "type": "constructor"
    },
    {
      "anonymous": false,
      "inputs": [
        {
          "indexed": false,
          "internalType": "address payable",
          "name": "_destinoTransferencia",
          "type": "address"
        },
        {
          "indexed": false,
          "internalType": "address",
          "name": "_origenTransferencia",
          "type": "address"
        },
        {
          "indexed": false,
          "internalType": "uint256",
          "name": "montoTransferencia",
          "type": "uint256"
        }
      ],
      "name": "TransferirMonto",
      "type": "event"
    },
    {
      "inputs": [
        {
          "internalType": "address payable",
          "name": "_destinoTransferencia",
          "type": "address"
        }
      ],
      "name": "nuevaTransaccion",
      "outputs": [
        {
          "internalType": "bool",
          "name": "",
          "type": "bool"
        }
      ],
      "stateMutability": "payable",
      "type": "function"
    },
    {
      "inputs": [],
      "name": "verBalanceCuenta",
      "outputs": [
        {
          "internalType": "uint256",
          "name": "",
          "type": "uint256"
        }
      ],
      "stateMutability": "payable",
      "type": "function"
    }
  ],
  "bytecode": "0x608060405234801561001057600080fd5b50336000806101000a81548173ffffffffffffffffffffffffffffffffffffffff021916908373ffffffffffffffffffffffffffffffffffffffff160217905550610385806100606000396000f3fe6080604052600436106100295760003560e01c806372e713ac1461002e578063e005f9201461004c575b600080fd5b61003661007c565b6040516100439190610207565b60405180910390f35b61006660048036038101906100619190610285565b6100bc565b60405161007391906102cd565b60405180910390f35b60008060009054906101000a900473ffffffffffffffffffffffffffffffffffffffff1673ffffffffffffffffffffffffffffffffffffffff1631905090565b600081600160006101000a81548173ffffffffffffffffffffffffffffffffffffffff021916908373ffffffffffffffffffffffffffffffffffffffff160217905550600160009054906101000a900473ffffffffffffffffffffffffffffffffffffffff1673ffffffffffffffffffffffffffffffffffffffff166108fc349081150290604051600060405180830381858888f19350505050158015610167573d6000803e3d6000fd5b507ffc1ff50638c53d8cb428005e102107cffd2da1840abf5289da2981b8e99c6420600160009054906101000a900473ffffffffffffffffffffffffffffffffffffffff1660008054906101000a900473ffffffffffffffffffffffffffffffffffffffff16346040516101dd93929190610318565b60405180910390a160019050919050565b6000819050919050565b610201816101ee565b82525050565b600060208201905061021c60008301846101f8565b92915050565b600080fd5b600073ffffffffffffffffffffffffffffffffffffffff82169050919050565b600061025282610227565b9050919050565b61026281610247565b811461026d57600080fd5b50565b60008135905061027f81610259565b92915050565b60006020828403121561029b5761029a610222565b5b60006102a984828501610270565b91505092915050565b60008115159050919050565b6102c7816102b2565b82525050565b60006020820190506102e260008301846102be565b92915050565b6102f181610247565b82525050565b600061030282610227565b9050919050565b610312816102f7565b82525050565b600060608201905061032d60008301866102e8565b61033a6020830185610309565b61034760408301846101f8565b94935050505056fea2646970667358221220f8c3a79e65715242ff4ca20353e9c56e07a812807fd188b83bca40f1ca729d3064736f6c634300080b0033",
  "immutableReferences": {},
  "source": "// SPDX-License-Identifier: MIT\npragma solidity >=0.4.22 <0.9.0;\n\ncontract Payment {\n    address origenTransferencia;\n    address payable destinoTransferencia;\n    uint montoTransferencia;\n\n    constructor() public {\n        origenTransferencia = msg.sender;\n    }\n\n    event TransferirMonto(address payable _destinoTransferencia, address _origenTransferencia, uint montoTransferencia);\n\n    function nuevaTransaccion(address payable _destinoTransferencia) public payable returns (bool){\n        destinoTransferencia = _destinoTransferencia;\n        destinoTransferencia.transfer(msg.value);\n        emit TransferirMonto(destinoTransferencia, origenTransferencia, msg.value);\n        return true;\n    }\n    function verBalanceCuenta() public payable returns (uint) {\n        return origenTransferencia.balance;\n    }\n}\n",
  "sourcePath": "/Users/martinsam16xyz/Documents/dApp/contracts/Payment.sol",
  "compiler": {
    "name": "solc",
    "version": "0.8.11+commit.d7f03943.Emscripten.clang"
  },
  "schemaVersion": "3.4.4",
  "updatedAt": "2022-01-03T08:17:51.082Z",
  "devdoc": {
    "kind": "dev",
    "methods": {},
    "version": 1
  },
  "userdoc": {
    "kind": "user",
    "methods": {},
    "version": 1
  }
}