{
  "contractName": "Yape",
  "abi": [
    {
      "inputs": [],
      "stateMutability": "nonpayable",
      "type": "constructor"
    },
    {
      "anonymous": false,
      "inputs": [
        {
          "indexed": false,
          "internalType": "address",
          "name": "_fromAddress",
          "type": "address"
        },
        {
          "indexed": false,
          "internalType": "address",
          "name": "_toAddress",
          "type": "address"
        },
        {
          "indexed": false,
          "internalType": "uint256",
          "name": "_ammount",
          "type": "uint256"
        }
      ],
      "name": "Transactions",
      "type": "event"
    },
    {
      "inputs": [
        {
          "internalType": "address payable",
          "name": "receiver",
          "type": "address"
        },
        {
          "internalType": "string",
          "name": "comment",
          "type": "string"
        },
        {
          "internalType": "string",
          "name": "date",
          "type": "string"
        }
      ],
      "name": "yapear",
      "outputs": [],
      "stateMutability": "payable",
      "type": "function",
      "payable": true
    },
    {
      "inputs": [],
      "name": "verYapeos",
      "outputs": [
        {
          "components": [
            {
              "internalType": "address",
              "name": "receiver",
              "type": "address"
            },
            {
              "internalType": "uint256",
              "name": "amount",
              "type": "uint256"
            },
            {
              "internalType": "string",
              "name": "action",
              "type": "string"
            },
            {
              "internalType": "string",
              "name": "comment",
              "type": "string"
            },
            {
              "internalType": "string",
              "name": "date",
              "type": "string"
            }
          ],
          "internalType": "struct Transaction[]",
          "name": "",
          "type": "tuple[]"
        }
      ],
      "stateMutability": "view",
      "type": "function",
      "constant": true
    }
  ],
  "bytecode": "0x608060405234801561001057600080fd5b50336000806101000a81548173ffffffffffffffffffffffffffffffffffffffff021916908373ffffffffffffffffffffffffffffffffffffffff160217905550610eee806100606000396000f3fe6080604052600436106100295760003560e01c8063c362a1ba1461002e578063e01e02a71461004a575b600080fd5b610048600480360381019061004391906109ea565b610075565b005b34801561005657600080fd5b5061005f6105c8565b60405161006c9190610c98565b60405180910390f35b8473ffffffffffffffffffffffffffffffffffffffff163373ffffffffffffffffffffffffffffffffffffffff1614156100e4576040517f08c379a00000000000000000000000000000000000000000000000000000000081526004016100db90610d17565b60405180910390fd5b60003411610127576040517f08c379a000000000000000000000000000000000000000000000000000000000815260040161011e90610d83565b60405180910390fd5b8473ffffffffffffffffffffffffffffffffffffffff166108fc349081150290604051600060405180830381858888f1935050505015801561016d573d6000803e3d6000fd5b50600160003373ffffffffffffffffffffffffffffffffffffffff1673ffffffffffffffffffffffffffffffffffffffff1681526020019081526020016000206040518060a001604052808773ffffffffffffffffffffffffffffffffffffffff1681526020013481526020016040518060400160405280600181526020017f2d00000000000000000000000000000000000000000000000000000000000000815250815260200186868080601f016020809104026020016040519081016040528093929190818152602001838380828437600081840152601f19601f82011690508083019250505050505050815260200184848080601f016020809104026020016040519081016040528093929190818152602001838380828437600081840152601f19601f82011690508083019250505050505050815250908060018154018082558091505060019003906000526020600020906005020160009091909190915060008201518160000160006101000a81548173ffffffffffffffffffffffffffffffffffffffff021916908373ffffffffffffffffffffffffffffffffffffffff16021790555060208201518160010155604082015181600201908051906020019061033d92919061087a565b50606082015181600301908051906020019061035a92919061087a565b50608082015181600401908051906020019061037792919061087a565b505050600160008673ffffffffffffffffffffffffffffffffffffffff1673ffffffffffffffffffffffffffffffffffffffff1681526020019081526020016000206040518060a001604052803373ffffffffffffffffffffffffffffffffffffffff1681526020013481526020016040518060400160405280600181526020017f2b00000000000000000000000000000000000000000000000000000000000000815250815260200186868080601f016020809104026020016040519081016040528093929190818152602001838380828437600081840152601f19601f82011690508083019250505050505050815260200184848080601f016020809104026020016040519081016040528093929190818152602001838380828437600081840152601f19601f82011690508083019250505050505050815250908060018154018082558091505060019003906000526020600020906005020160009091909190915060008201518160000160006101000a81548173ffffffffffffffffffffffffffffffffffffffff021916908373ffffffffffffffffffffffffffffffffffffffff16021790555060208201518160010155604082015181600201908051906020019061054992919061087a565b50606082015181600301908051906020019061056692919061087a565b50608082015181600401908051906020019061058392919061087a565b5050507f5efd36c7e364fdbed1ee340797506aea664ae79053901c90bfb600bc0a30a1273386346040516105b993929190610e20565b60405180910390a15050505050565b6060600160003373ffffffffffffffffffffffffffffffffffffffff1673ffffffffffffffffffffffffffffffffffffffff168152602001908152602001600020805480602002602001604051908101604052809291908181526020016000905b8282101561087157838290600052602060002090600502016040518060a00160405290816000820160009054906101000a900473ffffffffffffffffffffffffffffffffffffffff1673ffffffffffffffffffffffffffffffffffffffff1673ffffffffffffffffffffffffffffffffffffffff168152602001600182015481526020016002820180546106bc90610e86565b80601f01602080910402602001604051908101604052809291908181526020018280546106e890610e86565b80156107355780601f1061070a57610100808354040283529160200191610735565b820191906000526020600020905b81548152906001019060200180831161071857829003601f168201915b5050505050815260200160038201805461074e90610e86565b80601f016020809104026020016040519081016040528092919081815260200182805461077a90610e86565b80156107c75780601f1061079c576101008083540402835291602001916107c7565b820191906000526020600020905b8154815290600101906020018083116107aa57829003601f168201915b505050505081526020016004820180546107e090610e86565b80601f016020809104026020016040519081016040528092919081815260200182805461080c90610e86565b80156108595780601f1061082e57610100808354040283529160200191610859565b820191906000526020600020905b81548152906001019060200180831161083c57829003601f168201915b50505050508152505081526020019060010190610629565b50505050905090565b82805461088690610e86565b90600052602060002090601f0160209004810192826108a857600085556108ef565b82601f106108c157805160ff19168380011785556108ef565b828001600101855582156108ef579182015b828111156108ee5782518255916020019190600101906108d3565b5b5090506108fc9190610900565b5090565b5b80821115610919576000816000905550600101610901565b5090565b600080fd5b600080fd5b600073ffffffffffffffffffffffffffffffffffffffff82169050919050565b600061095282610927565b9050919050565b61096281610947565b811461096d57600080fd5b50565b60008135905061097f81610959565b92915050565b600080fd5b600080fd5b600080fd5b60008083601f8401126109aa576109a9610985565b5b8235905067ffffffffffffffff8111156109c7576109c661098a565b5b6020830191508360018202830111156109e3576109e261098f565b5b9250929050565b600080600080600060608688031215610a0657610a0561091d565b5b6000610a1488828901610970565b955050602086013567ffffffffffffffff811115610a3557610a34610922565b5b610a4188828901610994565b9450945050604086013567ffffffffffffffff811115610a6457610a63610922565b5b610a7088828901610994565b92509250509295509295909350565b600081519050919050565b600082825260208201905092915050565b6000819050602082019050919050565b6000610ab682610927565b9050919050565b610ac681610aab565b82525050565b6000819050919050565b610adf81610acc565b82525050565b600081519050919050565b600082825260208201905092915050565b60005b83811015610b1f578082015181840152602081019050610b04565b83811115610b2e576000848401525b50505050565b6000601f19601f8301169050919050565b6000610b5082610ae5565b610b5a8185610af0565b9350610b6a818560208601610b01565b610b7381610b34565b840191505092915050565b600060a083016000830151610b966000860182610abd565b506020830151610ba96020860182610ad6565b5060408301518482036040860152610bc18282610b45565b91505060608301518482036060860152610bdb8282610b45565b91505060808301518482036080860152610bf58282610b45565b9150508091505092915050565b6000610c0e8383610b7e565b905092915050565b6000602082019050919050565b6000610c2e82610a7f565b610c388185610a8a565b935083602082028501610c4a85610a9b565b8060005b85811015610c865784840389528151610c678582610c02565b9450610c7283610c16565b925060208a01995050600181019050610c4e565b50829750879550505050505092915050565b60006020820190508181036000830152610cb28184610c23565b905092915050565b600082825260208201905092915050565b7f4e6f207075656465732079617065617274652061207469206d69736d6f000000600082015250565b6000610d01601d83610cba565b9150610d0c82610ccb565b602082019050919050565b60006020820190508181036000830152610d3081610cf4565b9050919050565b7f5469656e65732071756520656e76696172206574686572730000000000000000600082015250565b6000610d6d601883610cba565b9150610d7882610d37565b602082019050919050565b60006020820190508181036000830152610d9c81610d60565b9050919050565b610dac81610aab565b82525050565b6000819050919050565b6000610dd7610dd2610dcd84610927565b610db2565b610927565b9050919050565b6000610de982610dbc565b9050919050565b6000610dfb82610dde565b9050919050565b610e0b81610df0565b82525050565b610e1a81610acc565b82525050565b6000606082019050610e356000830186610da3565b610e426020830185610e02565b610e4f6040830184610e11565b949350505050565b7f4e487b7100000000000000000000000000000000000000000000000000000000600052602260045260246000fd5b60006002820490506001821680610e9e57607f821691505b60208210811415610eb257610eb1610e57565b5b5091905056fea26469706673582212206b60cc62dc47ef88ec6e5d3397515105d72255f50b09dc6faa12b29f9c246b4564736f6c634300080b0033",
  "immutableReferences": {},
  "source": "// SPDX-License-Identifier: MIT\npragma solidity >=0.4.22 <0.9.0;\n\n    struct Transaction {\n        address receiver;\n        uint amount;\n        string action;\n        string comment;\n        string date;\n    }\n\ncontract Yape {\n\n    address owner;\n    mapping(address => Transaction[]) yapeos;\n\n    event Transactions(address _fromAddress, address _toAddress, uint _ammount);\n\n    constructor() {\n        owner = msg.sender;\n    }\n\n    modifier isOwner() {\n        require(msg.sender == owner, \"Caller is not owner\");\n        _;\n    }\n\n\n    function yapear(address payable receiver, string calldata comment, string calldata date) public payable {\n\n        require(msg.sender != receiver, \"No puedes yapearte a ti mismo\");\n        require(msg.value > 0, \"Tienes que enviar ethers\");\n\n        receiver.transfer(msg.value);\n\n        yapeos[msg.sender].push(Transaction(receiver, msg.value, \"-\", comment, date));\n        yapeos[receiver].push(Transaction(msg.sender, msg.value, \"+\", comment, date));\n\n        emit Transactions(msg.sender, receiver, msg.value);\n    }\n\n    function verYapeos() public view returns (Transaction[] memory) {\n        return yapeos[msg.sender];\n    }\n\n}",
  "sourcePath": "/Users/martinsam16xyz/WebstormProjects/yape/contracts/Yape.sol",
  "compiler": {
    "name": "solc",
    "version": "0.8.11+commit.d7f03943.Emscripten.clang"
  },
  "schemaVersion": "3.4.4",
  "updatedAt": "2022-01-07T03:19:30.890Z",
  "networkType": "ethereum",
  "devdoc": {
    "kind": "dev",
    "methods": {},
    "version": 1
  },
  "userdoc": {
    "kind": "user",
    "methods": {},
    "version": 1
  }
}