{
  "contractName": "Yape",
  "abi": [
    {
      "inputs": [],
      "stateMutability": "nonpayable",
      "type": "constructor"
    },
    {
      "anonymous": false,
      "inputs": [
        {
          "indexed": false,
          "internalType": "address",
          "name": "_fromAddress",
          "type": "address"
        },
        {
          "indexed": false,
          "internalType": "uint256",
          "name": "_ammount",
          "type": "uint256"
        }
      ],
      "name": "Donations",
      "type": "event"
    },
    {
      "anonymous": false,
      "inputs": [
        {
          "indexed": false,
          "internalType": "address",
          "name": "_fromAddress",
          "type": "address"
        },
        {
          "indexed": false,
          "internalType": "address",
          "name": "_toAddress",
          "type": "address"
        },
        {
          "indexed": false,
          "internalType": "uint256",
          "name": "_ammount",
          "type": "uint256"
        }
      ],
      "name": "Transactions",
      "type": "event"
    },
    {
      "stateMutability": "payable",
      "type": "fallback"
    },
    {
      "stateMutability": "payable",
      "type": "receive"
    },
    {
      "inputs": [
        {
          "internalType": "address payable",
          "name": "receiver",
          "type": "address"
        },
        {
          "internalType": "string",
          "name": "comment",
          "type": "string"
        },
        {
          "internalType": "string",
          "name": "date",
          "type": "string"
        }
      ],
      "name": "yapear",
      "outputs": [],
      "stateMutability": "payable",
      "type": "function"
    },
    {
      "inputs": [
        {
          "internalType": "string",
          "name": "userAlias",
          "type": "string"
        }
      ],
      "name": "updateAlias",
      "outputs": [],
      "stateMutability": "nonpayable",
      "type": "function"
    },
    {
      "inputs": [],
      "name": "viewYapeos",
      "outputs": [
        {
          "components": [
            {
              "internalType": "address",
              "name": "receiver",
              "type": "address"
            },
            {
              "internalType": "uint256",
              "name": "amount",
              "type": "uint256"
            },
            {
              "internalType": "string",
              "name": "action",
              "type": "string"
            },
            {
              "internalType": "string",
              "name": "comment",
              "type": "string"
            },
            {
              "internalType": "string",
              "name": "date",
              "type": "string"
            }
          ],
          "internalType": "struct Transaction[]",
          "name": "",
          "type": "tuple[]"
        }
      ],
      "stateMutability": "view",
      "type": "function"
    },
    {
      "inputs": [],
      "name": "viewDonations",
      "outputs": [
        {
          "internalType": "uint256",
          "name": "",
          "type": "uint256"
        }
      ],
      "stateMutability": "view",
      "type": "function"
    },
    {
      "inputs": [
        {
          "internalType": "address",
          "name": "userAddress",
          "type": "address"
        }
      ],
      "name": "viewAlias",
      "outputs": [
        {
          "internalType": "string",
          "name": "",
          "type": "string"
        }
      ],
      "stateMutability": "view",
      "type": "function"
    },
    {
      "inputs": [],
      "name": "getOwner",
      "outputs": [
        {
          "internalType": "address",
          "name": "",
          "type": "address"
        }
      ],
      "stateMutability": "view",
      "type": "function"
    }
  ],
  "bytecode": "0x608060405234801561001057600080fd5b50336000806101000a81548173ffffffffffffffffffffffffffffffffffffffff021916908373ffffffffffffffffffffffffffffffffffffffff16021790555061147b806100606000396000f3fe6080604052600436106100595760003560e01c806370b4587f1461010a578063893d20e814610135578063c362a1ba14610160578063e81c411d1461017c578063ea868509146101a7578063fcf6d0cd146101e457610108565b366101085734600360003373ffffffffffffffffffffffffffffffffffffffff1673ffffffffffffffffffffffffffffffffffffffff16815260200190815260200160002060008282546100ad9190610bc6565b9250508190555034600160008282546100c69190610bc6565b925050819055507fe8898688a9f933d39fa5968d1776b9316efa3c48a94281d228b0f99405ab1c0433346040516100fe929190610c6c565b60405180910390a1005b005b34801561011657600080fd5b5061011f61020d565b60405161012c9190610e92565b60405180910390f35b34801561014157600080fd5b5061014a6104bf565b6040516101579190610eb4565b60405180910390f35b61017a60048036038101906101759190611056565b6104e8565b005b34801561018857600080fd5b50610191610929565b60405161019e91906110e1565b60405180910390f35b3480156101b357600080fd5b506101ce60048036038101906101c99190611128565b6109c2565b6040516101db919061119f565b60405180910390f35b3480156101f057600080fd5b5061020b600480360381019061020691906111c1565b610a93565b005b6060600260003373ffffffffffffffffffffffffffffffffffffffff1673ffffffffffffffffffffffffffffffffffffffff168152602001908152602001600020805480602002602001604051908101604052809291908181526020016000905b828210156104b657838290600052602060002090600502016040518060a00160405290816000820160009054906101000a900473ffffffffffffffffffffffffffffffffffffffff1673ffffffffffffffffffffffffffffffffffffffff1673ffffffffffffffffffffffffffffffffffffffff1681526020016001820154815260200160028201805461030190611239565b80601f016020809104026020016040519081016040528092919081815260200182805461032d90611239565b801561037a5780601f1061034f5761010080835404028352916020019161037a565b820191906000526020600020905b81548152906001019060200180831161035d57829003601f168201915b5050505050815260200160038201805461039390611239565b80601f01602080910402602001604051908101604052809291908181526020018280546103bf90611239565b801561040c5780601f106103e15761010080835404028352916020019161040c565b820191906000526020600020905b8154815290600101906020018083116103ef57829003601f168201915b5050505050815260200160048201805461042590611239565b80601f016020809104026020016040519081016040528092919081815260200182805461045190611239565b801561049e5780601f106104735761010080835404028352916020019161049e565b820191906000526020600020905b81548152906001019060200180831161048157829003601f168201915b5050505050815250508152602001906001019061026e565b50505050905090565b60008060009054906101000a900473ffffffffffffffffffffffffffffffffffffffff16905090565b8273ffffffffffffffffffffffffffffffffffffffff163373ffffffffffffffffffffffffffffffffffffffff161415610557576040517f08c379a000000000000000000000000000000000000000000000000000000000815260040161054e906112b7565b60405180910390fd5b6000341161059a576040517f08c379a000000000000000000000000000000000000000000000000000000000815260040161059190611323565b60405180910390fd5b8273ffffffffffffffffffffffffffffffffffffffff166108fc349081150290604051600060405180830381858888f193505050501580156105e0573d6000803e3d6000fd5b50600260003373ffffffffffffffffffffffffffffffffffffffff1673ffffffffffffffffffffffffffffffffffffffff1681526020019081526020016000206040518060a001604052808573ffffffffffffffffffffffffffffffffffffffff1681526020013481526020016040518060400160405280600181526020017f2d00000000000000000000000000000000000000000000000000000000000000815250815260200184815260200183815250908060018154018082558091505060019003906000526020600020906005020160009091909190915060008201518160000160006101000a81548173ffffffffffffffffffffffffffffffffffffffff021916908373ffffffffffffffffffffffffffffffffffffffff160217905550602082015181600101556040820151816002019080519060200190610728929190610aea565b506060820151816003019080519060200190610745929190610aea565b506080820151816004019080519060200190610762929190610aea565b505050600260008473ffffffffffffffffffffffffffffffffffffffff1673ffffffffffffffffffffffffffffffffffffffff1681526020019081526020016000206040518060a001604052803373ffffffffffffffffffffffffffffffffffffffff1681526020013481526020016040518060400160405280600181526020017f2b00000000000000000000000000000000000000000000000000000000000000815250815260200184815260200183815250908060018154018082558091505060019003906000526020600020906005020160009091909190915060008201518160000160006101000a81548173ffffffffffffffffffffffffffffffffffffffff021916908373ffffffffffffffffffffffffffffffffffffffff1602179055506020820151816001015560408201518160020190805190602001906108ac929190610aea565b5060608201518160030190805190602001906108c9929190610aea565b5060808201518160040190805190602001906108e6929190610aea565b5050507f5efd36c7e364fdbed1ee340797506aea664ae79053901c90bfb600bc0a30a12733843460405161091c939291906113a2565b60405180910390a1505050565b60008060009054906101000a900473ffffffffffffffffffffffffffffffffffffffff1673ffffffffffffffffffffffffffffffffffffffff163373ffffffffffffffffffffffffffffffffffffffff16146109ba576040517f08c379a00000000000000000000000000000000000000000000000000000000081526004016109b190611425565b60405180910390fd5b600154905090565b6060600460008373ffffffffffffffffffffffffffffffffffffffff1673ffffffffffffffffffffffffffffffffffffffff1681526020019081526020016000208054610a0e90611239565b80601f0160208091040260200160405190810160405280929190818152602001828054610a3a90611239565b8015610a875780601f10610a5c57610100808354040283529160200191610a87565b820191906000526020600020905b815481529060010190602001808311610a6a57829003601f168201915b50505050509050919050565b80600460003373ffffffffffffffffffffffffffffffffffffffff1673ffffffffffffffffffffffffffffffffffffffff1681526020019081526020016000209080519060200190610ae6929190610aea565b5050565b828054610af690611239565b90600052602060002090601f016020900481019282610b185760008555610b5f565b82601f10610b3157805160ff1916838001178555610b5f565b82800160010185558215610b5f579182015b82811115610b5e578251825591602001919060010190610b43565b5b509050610b6c9190610b70565b5090565b5b80821115610b89576000816000905550600101610b71565b5090565b6000819050919050565b7f4e487b7100000000000000000000000000000000000000000000000000000000600052601160045260246000fd5b6000610bd182610b8d565b9150610bdc83610b8d565b9250827fffffffffffffffffffffffffffffffffffffffffffffffffffffffffffffffff03821115610c1157610c10610b97565b5b828201905092915050565b600073ffffffffffffffffffffffffffffffffffffffff82169050919050565b6000610c4782610c1c565b9050919050565b610c5781610c3c565b82525050565b610c6681610b8d565b82525050565b6000604082019050610c816000830185610c4e565b610c8e6020830184610c5d565b9392505050565b600081519050919050565b600082825260208201905092915050565b6000819050602082019050919050565b610cca81610c3c565b82525050565b610cd981610b8d565b82525050565b600081519050919050565b600082825260208201905092915050565b60005b83811015610d19578082015181840152602081019050610cfe565b83811115610d28576000848401525b50505050565b6000601f19601f8301169050919050565b6000610d4a82610cdf565b610d548185610cea565b9350610d64818560208601610cfb565b610d6d81610d2e565b840191505092915050565b600060a083016000830151610d906000860182610cc1565b506020830151610da36020860182610cd0565b5060408301518482036040860152610dbb8282610d3f565b91505060608301518482036060860152610dd58282610d3f565b91505060808301518482036080860152610def8282610d3f565b9150508091505092915050565b6000610e088383610d78565b905092915050565b6000602082019050919050565b6000610e2882610c95565b610e328185610ca0565b935083602082028501610e4485610cb1565b8060005b85811015610e805784840389528151610e618582610dfc565b9450610e6c83610e10565b925060208a01995050600181019050610e48565b50829750879550505050505092915050565b60006020820190508181036000830152610eac8184610e1d565b905092915050565b6000602082019050610ec96000830184610c4e565b92915050565b6000604051905090565b600080fd5b600080fd5b6000610eee82610c1c565b9050919050565b610efe81610ee3565b8114610f0957600080fd5b50565b600081359050610f1b81610ef5565b92915050565b600080fd5b600080fd5b7f4e487b7100000000000000000000000000000000000000000000000000000000600052604160045260246000fd5b610f6382610d2e565b810181811067ffffffffffffffff82111715610f8257610f81610f2b565b5b80604052505050565b6000610f95610ecf565b9050610fa18282610f5a565b919050565b600067ffffffffffffffff821115610fc157610fc0610f2b565b5b610fca82610d2e565b9050602081019050919050565b82818337600083830152505050565b6000610ff9610ff484610fa6565b610f8b565b90508281526020810184848401111561101557611014610f26565b5b611020848285610fd7565b509392505050565b600082601f83011261103d5761103c610f21565b5b813561104d848260208601610fe6565b91505092915050565b60008060006060848603121561106f5761106e610ed9565b5b600061107d86828701610f0c565b935050602084013567ffffffffffffffff81111561109e5761109d610ede565b5b6110aa86828701611028565b925050604084013567ffffffffffffffff8111156110cb576110ca610ede565b5b6110d786828701611028565b9150509250925092565b60006020820190506110f66000830184610c5d565b92915050565b61110581610c3c565b811461111057600080fd5b50565b600081359050611122816110fc565b92915050565b60006020828403121561113e5761113d610ed9565b5b600061114c84828501611113565b91505092915050565b600082825260208201905092915050565b600061117182610cdf565b61117b8185611155565b935061118b818560208601610cfb565b61119481610d2e565b840191505092915050565b600060208201905081810360008301526111b98184611166565b905092915050565b6000602082840312156111d7576111d6610ed9565b5b600082013567ffffffffffffffff8111156111f5576111f4610ede565b5b61120184828501611028565b91505092915050565b7f4e487b7100000000000000000000000000000000000000000000000000000000600052602260045260246000fd5b6000600282049050600182168061125157607f821691505b602082108114156112655761126461120a565b5b50919050565b7f4e6f207075656465732079617065617274652061207469206d69736d6f000000600082015250565b60006112a1601d83611155565b91506112ac8261126b565b602082019050919050565b600060208201905081810360008301526112d081611294565b9050919050565b7f5469656e65732071756520656e76696172206574686572730000000000000000600082015250565b600061130d601883611155565b9150611318826112d7565b602082019050919050565b6000602082019050818103600083015261133c81611300565b9050919050565b6000819050919050565b600061136861136361135e84610c1c565b611343565b610c1c565b9050919050565b600061137a8261134d565b9050919050565b600061138c8261136f565b9050919050565b61139c81611381565b82525050565b60006060820190506113b76000830186610c4e565b6113c46020830185611393565b6113d16040830184610c5d565b949350505050565b7f5475206e6f206572657320656c206f776e657200000000000000000000000000600082015250565b600061140f601383611155565b915061141a826113d9565b602082019050919050565b6000602082019050818103600083015261143e81611402565b905091905056fea26469706673582212208b4b740b2a623bafb26517b17db46387013e72000c105cfd2cfc67b888aa3a3464736f6c634300080b0033",
  "immutableReferences": {},
  "source": "// SPDX-License-Identifier: UNLICENSED\r\npragma solidity >=0.4.22 <0.9.0;\r\n\r\ncontract Yape {\r\n\r\n    address owner;\r\n    uint totalDonations;\r\n\r\n    mapping(address => Transaction[]) yapeos;\r\n    mapping(address => uint) donations;\r\n    mapping(address => string) aliasUsers;\r\n\r\n    event Transactions(address _fromAddress, address _toAddress, uint _ammount);\r\n    event Donations(address _fromAddress, uint _ammount);\r\n\r\n    constructor() {\r\n        owner = msg.sender;\r\n    }\r\n\r\n    modifier isOwner() {\r\n        require(msg.sender == owner, \"Tu no eres el owner\");\r\n        _;\r\n    }\r\n\r\n    function yapear(address payable receiver, string memory comment, string memory date) public payable {\r\n\r\n        require(msg.sender != receiver, \"No puedes yapearte a ti mismo\");\r\n        require(msg.value > 0, \"Tienes que enviar ethers\");\r\n\r\n        receiver.transfer(msg.value);\r\n\r\n        yapeos[msg.sender].push(Transaction(receiver, msg.value, \"-\", comment, date));\r\n        yapeos[receiver].push(Transaction(msg.sender, msg.value, \"+\", comment, date));\r\n\r\n        emit Transactions(msg.sender, receiver, msg.value);\r\n    }\r\n\r\n    function updateAlias(string memory userAlias) external {\r\n        aliasUsers[msg.sender] = userAlias;\r\n    }\r\n\r\n    function viewYapeos() public view returns (Transaction[] memory) {\r\n        return yapeos[msg.sender];\r\n    }\r\n\r\n    function viewDonations() isOwner public view returns (uint){\r\n        return totalDonations;\r\n    }\r\n\r\n    function viewAlias(address userAddress) public view returns (string memory){\r\n        return aliasUsers[userAddress];\r\n    }\r\n\r\n    receive() external payable {\r\n        donations[msg.sender] += msg.value;\r\n        totalDonations += msg.value;\r\n        emit Donations(msg.sender, msg.value);\r\n    }\r\n\r\n    fallback() external payable {\r\n        //No deberia llegar ac\r\n    }\r\n\r\n    function getOwner() external view returns (address) {\r\n        return owner;\r\n    }\r\n\r\n}\r\n\r\nstruct Transaction {\r\n    address receiver;\r\n    uint amount;\r\n    string action;\r\n    string comment;\r\n    string date;\r\n}",
  "sourcePath": "C:\\Users\\martinsam16xyz\\Documents\\GitHub\\yape\\contracts\\Yape.sol",
  "compiler": {
    "name": "solc",
    "version": "0.8.11+commit.d7f03943.Emscripten.clang"
  },
  "schemaVersion": "3.4.4",
  "updatedAt": "2022-07-17T10:18:18.352Z",
  "devdoc": {
    "kind": "dev",
    "methods": {},
    "version": 1
  },
  "userdoc": {
    "kind": "user",
    "methods": {},
    "version": 1
  }
}