{
  "contractName": "Yape",
  "abi": [
    {
      "inputs": [],
      "stateMutability": "nonpayable",
      "type": "constructor"
    },
    {
      "anonymous": false,
      "inputs": [
        {
          "indexed": false,
          "internalType": "address",
          "name": "_fromAddress",
          "type": "address"
        },
        {
          "indexed": false,
          "internalType": "address",
          "name": "_toAddress",
          "type": "address"
        },
        {
          "indexed": false,
          "internalType": "uint256",
          "name": "_ammount",
          "type": "uint256"
        }
      ],
      "name": "YapeEvents",
      "type": "event"
    },
    {
      "inputs": [
        {
          "internalType": "address payable",
          "name": "receiver",
          "type": "address"
        }
      ],
      "name": "yapear",
      "outputs": [],
      "stateMutability": "payable",
      "type": "function",
      "payable": true
    },
    {
      "inputs": [],
      "name": "verYapeos",
      "outputs": [
        {
          "components": [
            {
              "internalType": "address",
              "name": "receiver",
              "type": "address"
            },
            {
              "internalType": "uint256",
              "name": "amount",
              "type": "uint256"
            },
            {
              "internalType": "string",
              "name": "action",
              "type": "string"
            }
          ],
          "internalType": "struct Transaction[]",
          "name": "",
          "type": "tuple[]"
        }
      ],
      "stateMutability": "view",
      "type": "function",
      "constant": true
    }
  ],
  "bytecode": "0x608060405234801561001057600080fd5b50336000806101000a81548173ffffffffffffffffffffffffffffffffffffffff021916908373ffffffffffffffffffffffffffffffffffffffff160217905550610b24806100606000396000f3fe6080604052600436106100295760003560e01c806307643a141461002e578063e01e02a71461004a575b600080fd5b610048600480360381019061004391906106bc565b610075565b005b34801561005657600080fd5b5061005f610428565b60405161006c91906108ce565b60405180910390f35b8073ffffffffffffffffffffffffffffffffffffffff163373ffffffffffffffffffffffffffffffffffffffff1614156100e4576040517f08c379a00000000000000000000000000000000000000000000000000000000081526004016100db9061094d565b60405180910390fd5b60003411610127576040517f08c379a000000000000000000000000000000000000000000000000000000000815260040161011e906109b9565b60405180910390fd5b8073ffffffffffffffffffffffffffffffffffffffff166108fc349081150290604051600060405180830381858888f1935050505015801561016d573d6000803e3d6000fd5b50600160003373ffffffffffffffffffffffffffffffffffffffff1673ffffffffffffffffffffffffffffffffffffffff16815260200190815260200160002060405180606001604052808373ffffffffffffffffffffffffffffffffffffffff1681526020013481526020016040518060400160405280600481526020017f73656e6400000000000000000000000000000000000000000000000000000000815250815250908060018154018082558091505060019003906000526020600020906003020160009091909190915060008201518160000160006101000a81548173ffffffffffffffffffffffffffffffffffffffff021916908373ffffffffffffffffffffffffffffffffffffffff1602179055506020820151816001015560408201518160020190805190602001906102a99291906105b6565b505050600160008273ffffffffffffffffffffffffffffffffffffffff1673ffffffffffffffffffffffffffffffffffffffff16815260200190815260200160002060405180606001604052803373ffffffffffffffffffffffffffffffffffffffff1681526020013481526020016040518060400160405280600781526020017f7265636569766500000000000000000000000000000000000000000000000000815250815250908060018154018082558091505060019003906000526020600020906003020160009091909190915060008201518160000160006101000a81548173ffffffffffffffffffffffffffffffffffffffff021916908373ffffffffffffffffffffffffffffffffffffffff1602179055506020820151816001015560408201518160020190805190602001906103e79291906105b6565b5050507f3fcab62c868e2869b061edde4639420ea20823c79356c5d04493dcff55da3c9933823460405161041d93929190610a56565b60405180910390a150565b6060600160003373ffffffffffffffffffffffffffffffffffffffff1673ffffffffffffffffffffffffffffffffffffffff168152602001908152602001600020805480602002602001604051908101604052809291908181526020016000905b828210156105ad57838290600052602060002090600302016040518060600160405290816000820160009054906101000a900473ffffffffffffffffffffffffffffffffffffffff1673ffffffffffffffffffffffffffffffffffffffff1673ffffffffffffffffffffffffffffffffffffffff1681526020016001820154815260200160028201805461051c90610abc565b80601f016020809104026020016040519081016040528092919081815260200182805461054890610abc565b80156105955780601f1061056a57610100808354040283529160200191610595565b820191906000526020600020905b81548152906001019060200180831161057857829003601f168201915b50505050508152505081526020019060010190610489565b50505050905090565b8280546105c290610abc565b90600052602060002090601f0160209004810192826105e4576000855561062b565b82601f106105fd57805160ff191683800117855561062b565b8280016001018555821561062b579182015b8281111561062a57825182559160200191906001019061060f565b5b509050610638919061063c565b5090565b5b8082111561065557600081600090555060010161063d565b5090565b600080fd5b600073ffffffffffffffffffffffffffffffffffffffff82169050919050565b60006106898261065e565b9050919050565b6106998161067e565b81146106a457600080fd5b50565b6000813590506106b681610690565b92915050565b6000602082840312156106d2576106d1610659565b5b60006106e0848285016106a7565b91505092915050565b600081519050919050565b600082825260208201905092915050565b6000819050602082019050919050565b60006107208261065e565b9050919050565b61073081610715565b82525050565b6000819050919050565b61074981610736565b82525050565b600081519050919050565b600082825260208201905092915050565b60005b8381101561078957808201518184015260208101905061076e565b83811115610798576000848401525b50505050565b6000601f19601f8301169050919050565b60006107ba8261074f565b6107c4818561075a565b93506107d481856020860161076b565b6107dd8161079e565b840191505092915050565b60006060830160008301516108006000860182610727565b5060208301516108136020860182610740565b506040830151848203604086015261082b82826107af565b9150508091505092915050565b600061084483836107e8565b905092915050565b6000602082019050919050565b6000610864826106e9565b61086e81856106f4565b93508360208202850161088085610705565b8060005b858110156108bc578484038952815161089d8582610838565b94506108a88361084c565b925060208a01995050600181019050610884565b50829750879550505050505092915050565b600060208201905081810360008301526108e88184610859565b905092915050565b600082825260208201905092915050565b7f4e6f207075656465732079617065617274652061207469206d69736d6f000000600082015250565b6000610937601d836108f0565b915061094282610901565b602082019050919050565b600060208201905081810360008301526109668161092a565b9050919050565b7f5469656e65732071756520656e76696172206574686572730000000000000000600082015250565b60006109a36018836108f0565b91506109ae8261096d565b602082019050919050565b600060208201905081810360008301526109d281610996565b9050919050565b6109e281610715565b82525050565b6000819050919050565b6000610a0d610a08610a038461065e565b6109e8565b61065e565b9050919050565b6000610a1f826109f2565b9050919050565b6000610a3182610a14565b9050919050565b610a4181610a26565b82525050565b610a5081610736565b82525050565b6000606082019050610a6b60008301866109d9565b610a786020830185610a38565b610a856040830184610a47565b949350505050565b7f4e487b7100000000000000000000000000000000000000000000000000000000600052602260045260246000fd5b60006002820490506001821680610ad457607f821691505b60208210811415610ae857610ae7610a8d565b5b5091905056fea26469706673582212204fdb2be674c2689a95f0b80b6ea1f7856e58b04107170ef0f0ee892ac5060cf064736f6c634300080b0033",
  "immutableReferences": {},
  "source": "// SPDX-License-Identifier: MIT\npragma solidity >=0.4.22 <0.9.0;\n\n    struct Transaction {\n        address receiver;\n        uint amount;\n        string action;\n    }\n\ncontract Yape {\n\n    address owner;\n    mapping(address => Transaction[]) yapeos;\n    event YapeEvents(address _fromAddress, address _toAddress, uint _ammount);\n\n    constructor() {\n        owner = msg.sender;\n    }\n\n    modifier isOwner() {\n        require(msg.sender == owner, \"Caller is not owner\");\n        _;\n    }\n\n\n    function yapear(address payable receiver) public payable {\n\n        require(msg.sender != receiver, \"No puedes yapearte a ti mismo\");\n        require(msg.value > 0, \"Tienes que enviar ethers\");\n\n        receiver.transfer(msg.value);\n\n        yapeos[msg.sender].push(Transaction(receiver, msg.value, \"send\"));\n        yapeos[receiver].push(Transaction(msg.sender, msg.value, \"receive\"));\n\n        emit YapeEvents(msg.sender, receiver, msg.value);\n    }\n\n    function verYapeos() public view returns (Transaction[] memory) {\n        return yapeos[msg.sender];\n    }\n\n}\n",
  "sourcePath": "/Users/martinsam16xyz/WebstormProjects/yape/contracts/Yape.sol",
  "compiler": {
    "name": "solc",
    "version": "0.8.11+commit.d7f03943.Emscripten.clang"
  },
  "schemaVersion": "3.4.4",
  "updatedAt": "2022-01-06T23:15:43.078Z",
  "networkType": "ethereum",
  "devdoc": {
    "kind": "dev",
    "methods": {},
    "version": 1
  },
  "userdoc": {
    "kind": "user",
    "methods": {},
    "version": 1
  }
}