{
  "contractName": "Yape",
  "abi": [
    {
      "inputs": [],
      "stateMutability": "nonpayable",
      "type": "constructor"
    },
    {
      "anonymous": false,
      "inputs": [
        {
          "indexed": false,
          "internalType": "address",
          "name": "_fromAddress",
          "type": "address"
        },
        {
          "indexed": false,
          "internalType": "uint256",
          "name": "_ammount",
          "type": "uint256"
        }
      ],
      "name": "Donations",
      "type": "event"
    },
    {
      "anonymous": false,
      "inputs": [
        {
          "indexed": false,
          "internalType": "address",
          "name": "_fromAddress",
          "type": "address"
        },
        {
          "indexed": false,
          "internalType": "address",
          "name": "_toAddress",
          "type": "address"
        },
        {
          "indexed": false,
          "internalType": "uint256",
          "name": "_ammount",
          "type": "uint256"
        }
      ],
      "name": "Transactions",
      "type": "event"
    },
    {
      "stateMutability": "payable",
      "type": "fallback",
      "payable": true
    },
    {
      "stateMutability": "payable",
      "type": "receive",
      "payable": true
    },
    {
      "inputs": [
        {
          "internalType": "address payable",
          "name": "receiver",
          "type": "address"
        },
        {
          "internalType": "string",
          "name": "comment",
          "type": "string"
        },
        {
          "internalType": "string",
          "name": "date",
          "type": "string"
        }
      ],
      "name": "yapear",
      "outputs": [],
      "stateMutability": "payable",
      "type": "function",
      "payable": true
    },
    {
      "inputs": [],
      "name": "verYapeos",
      "outputs": [
        {
          "components": [
            {
              "internalType": "address",
              "name": "receiver",
              "type": "address"
            },
            {
              "internalType": "uint256",
              "name": "amount",
              "type": "uint256"
            },
            {
              "internalType": "string",
              "name": "action",
              "type": "string"
            },
            {
              "internalType": "string",
              "name": "comment",
              "type": "string"
            },
            {
              "internalType": "string",
              "name": "date",
              "type": "string"
            }
          ],
          "internalType": "struct Transaction[]",
          "name": "",
          "type": "tuple[]"
        }
      ],
      "stateMutability": "view",
      "type": "function",
      "constant": true
    },
    {
      "inputs": [],
      "name": "verDonaciones",
      "outputs": [
        {
          "internalType": "uint256",
          "name": "",
          "type": "uint256"
        }
      ],
      "stateMutability": "view",
      "type": "function",
      "constant": true
    },
    {
      "inputs": [],
      "name": "getLatestPrice",
      "outputs": [
        {
          "internalType": "int256",
          "name": "",
          "type": "int256"
        }
      ],
      "stateMutability": "view",
      "type": "function",
      "constant": true
    }
  ],
  "bytecode": "0x608060405234801561001057600080fd5b5033600160006101000a81548173ffffffffffffffffffffffffffffffffffffffff021916908373ffffffffffffffffffffffffffffffffffffffff160217905550739326bfa02add2366b30bacb125260af6410313316000806101000a81548173ffffffffffffffffffffffffffffffffffffffff021916908373ffffffffffffffffffffffffffffffffffffffff1602179055506113cf806100b56000396000f3fe6080604052600436106100435760003560e01c80637162944c146100f45780638e15f4731461011f578063c362a1ba1461014a578063e01e02a714610166576100f2565b366100f25734600460003373ffffffffffffffffffffffffffffffffffffffff1673ffffffffffffffffffffffffffffffffffffffff16815260200190815260200160002060008282546100979190610bb9565b9250508190555034600260008282546100b09190610bb9565b925050819055507fe8898688a9f933d39fa5968d1776b9316efa3c48a94281d228b0f99405ab1c0433346040516100e8929190610c5f565b60405180910390a1005b005b34801561010057600080fd5b50610109610191565b6040516101169190610c88565b60405180910390f35b34801561012b57600080fd5b5061013461022b565b6040516101419190610cbc565b60405180910390f35b610164600480360381019061015f9190610d84565b6102d8565b005b34801561017257600080fd5b5061017b61082b565b6040516101889190611016565b60405180910390f35b6000600160009054906101000a900473ffffffffffffffffffffffffffffffffffffffff1673ffffffffffffffffffffffffffffffffffffffff163373ffffffffffffffffffffffffffffffffffffffff1614610223576040517f08c379a000000000000000000000000000000000000000000000000000000000815260040161021a90611095565b60405180910390fd5b600254905090565b60008060008060008060008054906101000a900473ffffffffffffffffffffffffffffffffffffffff1673ffffffffffffffffffffffffffffffffffffffff1663feaf968c6040518163ffffffff1660e01b815260040160a060405180830381865afa15801561029f573d6000803e3d6000fd5b505050506040513d601f19601f820116820180604052508101906102c3919061114f565b94509450945094509450839550505050505090565b8473ffffffffffffffffffffffffffffffffffffffff163373ffffffffffffffffffffffffffffffffffffffff161415610347576040517f08c379a000000000000000000000000000000000000000000000000000000000815260040161033e90611216565b60405180910390fd5b6000341161038a576040517f08c379a000000000000000000000000000000000000000000000000000000000815260040161038190611282565b60405180910390fd5b8473ffffffffffffffffffffffffffffffffffffffff166108fc349081150290604051600060405180830381858888f193505050501580156103d0573d6000803e3d6000fd5b50600360003373ffffffffffffffffffffffffffffffffffffffff1673ffffffffffffffffffffffffffffffffffffffff1681526020019081526020016000206040518060a001604052808773ffffffffffffffffffffffffffffffffffffffff1681526020013481526020016040518060400160405280600181526020017f2d00000000000000000000000000000000000000000000000000000000000000815250815260200186868080601f016020809104026020016040519081016040528093929190818152602001838380828437600081840152601f19601f82011690508083019250505050505050815260200184848080601f016020809104026020016040519081016040528093929190818152602001838380828437600081840152601f19601f82011690508083019250505050505050815250908060018154018082558091505060019003906000526020600020906005020160009091909190915060008201518160000160006101000a81548173ffffffffffffffffffffffffffffffffffffffff021916908373ffffffffffffffffffffffffffffffffffffffff1602179055506020820151816001015560408201518160020190805190602001906105a0929190610add565b5060608201518160030190805190602001906105bd929190610add565b5060808201518160040190805190602001906105da929190610add565b505050600360008673ffffffffffffffffffffffffffffffffffffffff1673ffffffffffffffffffffffffffffffffffffffff1681526020019081526020016000206040518060a001604052803373ffffffffffffffffffffffffffffffffffffffff1681526020013481526020016040518060400160405280600181526020017f2b00000000000000000000000000000000000000000000000000000000000000815250815260200186868080601f016020809104026020016040519081016040528093929190818152602001838380828437600081840152601f19601f82011690508083019250505050505050815260200184848080601f016020809104026020016040519081016040528093929190818152602001838380828437600081840152601f19601f82011690508083019250505050505050815250908060018154018082558091505060019003906000526020600020906005020160009091909190915060008201518160000160006101000a81548173ffffffffffffffffffffffffffffffffffffffff021916908373ffffffffffffffffffffffffffffffffffffffff1602179055506020820151816001015560408201518160020190805190602001906107ac929190610add565b5060608201518160030190805190602001906107c9929190610add565b5060808201518160040190805190602001906107e6929190610add565b5050507f5efd36c7e364fdbed1ee340797506aea664ae79053901c90bfb600bc0a30a12733863460405161081c93929190611301565b60405180910390a15050505050565b6060600360003373ffffffffffffffffffffffffffffffffffffffff1673ffffffffffffffffffffffffffffffffffffffff168152602001908152602001600020805480602002602001604051908101604052809291908181526020016000905b82821015610ad457838290600052602060002090600502016040518060a00160405290816000820160009054906101000a900473ffffffffffffffffffffffffffffffffffffffff1673ffffffffffffffffffffffffffffffffffffffff1673ffffffffffffffffffffffffffffffffffffffff1681526020016001820154815260200160028201805461091f90611367565b80601f016020809104026020016040519081016040528092919081815260200182805461094b90611367565b80156109985780601f1061096d57610100808354040283529160200191610998565b820191906000526020600020905b81548152906001019060200180831161097b57829003601f168201915b505050505081526020016003820180546109b190611367565b80601f01602080910402602001604051908101604052809291908181526020018280546109dd90611367565b8015610a2a5780601f106109ff57610100808354040283529160200191610a2a565b820191906000526020600020905b815481529060010190602001808311610a0d57829003601f168201915b50505050508152602001600482018054610a4390611367565b80601f0160208091040260200160405190810160405280929190818152602001828054610a6f90611367565b8015610abc5780601f10610a9157610100808354040283529160200191610abc565b820191906000526020600020905b815481529060010190602001808311610a9f57829003601f168201915b5050505050815250508152602001906001019061088c565b50505050905090565b828054610ae990611367565b90600052602060002090601f016020900481019282610b0b5760008555610b52565b82601f10610b2457805160ff1916838001178555610b52565b82800160010185558215610b52579182015b82811115610b51578251825591602001919060010190610b36565b5b509050610b5f9190610b63565b5090565b5b80821115610b7c576000816000905550600101610b64565b5090565b6000819050919050565b7f4e487b7100000000000000000000000000000000000000000000000000000000600052601160045260246000fd5b6000610bc482610b80565b9150610bcf83610b80565b9250827fffffffffffffffffffffffffffffffffffffffffffffffffffffffffffffffff03821115610c0457610c03610b8a565b5b828201905092915050565b600073ffffffffffffffffffffffffffffffffffffffff82169050919050565b6000610c3a82610c0f565b9050919050565b610c4a81610c2f565b82525050565b610c5981610b80565b82525050565b6000604082019050610c746000830185610c41565b610c816020830184610c50565b9392505050565b6000602082019050610c9d6000830184610c50565b92915050565b6000819050919050565b610cb681610ca3565b82525050565b6000602082019050610cd16000830184610cad565b92915050565b600080fd5b600080fd5b6000610cec82610c0f565b9050919050565b610cfc81610ce1565b8114610d0757600080fd5b50565b600081359050610d1981610cf3565b92915050565b600080fd5b600080fd5b600080fd5b60008083601f840112610d4457610d43610d1f565b5b8235905067ffffffffffffffff811115610d6157610d60610d24565b5b602083019150836001820283011115610d7d57610d7c610d29565b5b9250929050565b600080600080600060608688031215610da057610d9f610cd7565b5b6000610dae88828901610d0a565b955050602086013567ffffffffffffffff811115610dcf57610dce610cdc565b5b610ddb88828901610d2e565b9450945050604086013567ffffffffffffffff811115610dfe57610dfd610cdc565b5b610e0a88828901610d2e565b92509250509295509295909350565b600081519050919050565b600082825260208201905092915050565b6000819050602082019050919050565b610e4e81610c2f565b82525050565b610e5d81610b80565b82525050565b600081519050919050565b600082825260208201905092915050565b60005b83811015610e9d578082015181840152602081019050610e82565b83811115610eac576000848401525b50505050565b6000601f19601f8301169050919050565b6000610ece82610e63565b610ed88185610e6e565b9350610ee8818560208601610e7f565b610ef181610eb2565b840191505092915050565b600060a083016000830151610f146000860182610e45565b506020830151610f276020860182610e54565b5060408301518482036040860152610f3f8282610ec3565b91505060608301518482036060860152610f598282610ec3565b91505060808301518482036080860152610f738282610ec3565b9150508091505092915050565b6000610f8c8383610efc565b905092915050565b6000602082019050919050565b6000610fac82610e19565b610fb68185610e24565b935083602082028501610fc885610e35565b8060005b858110156110045784840389528151610fe58582610f80565b9450610ff083610f94565b925060208a01995050600181019050610fcc565b50829750879550505050505092915050565b600060208201905081810360008301526110308184610fa1565b905092915050565b600082825260208201905092915050565b7f5475206e6f206572657320656c206f776e657200000000000000000000000000600082015250565b600061107f601383611038565b915061108a82611049565b602082019050919050565b600060208201905081810360008301526110ae81611072565b9050919050565b600069ffffffffffffffffffff82169050919050565b6110d4816110b5565b81146110df57600080fd5b50565b6000815190506110f1816110cb565b92915050565b61110081610ca3565b811461110b57600080fd5b50565b60008151905061111d816110f7565b92915050565b61112c81610b80565b811461113757600080fd5b50565b60008151905061114981611123565b92915050565b600080600080600060a0868803121561116b5761116a610cd7565b5b6000611179888289016110e2565b955050602061118a8882890161110e565b945050604061119b8882890161113a565b93505060606111ac8882890161113a565b92505060806111bd888289016110e2565b9150509295509295909350565b7f4e6f207075656465732079617065617274652061207469206d69736d6f000000600082015250565b6000611200601d83611038565b915061120b826111ca565b602082019050919050565b6000602082019050818103600083015261122f816111f3565b9050919050565b7f5469656e65732071756520656e76696172206574686572730000000000000000600082015250565b600061126c601883611038565b915061127782611236565b602082019050919050565b6000602082019050818103600083015261129b8161125f565b9050919050565b6000819050919050565b60006112c76112c26112bd84610c0f565b6112a2565b610c0f565b9050919050565b60006112d9826112ac565b9050919050565b60006112eb826112ce565b9050919050565b6112fb816112e0565b82525050565b60006060820190506113166000830186610c41565b61132360208301856112f2565b6113306040830184610c50565b949350505050565b7f4e487b7100000000000000000000000000000000000000000000000000000000600052602260045260246000fd5b6000600282049050600182168061137f57607f821691505b6020821081141561139357611392611338565b5b5091905056fea26469706673582212202ebfbceb751575cef502dec19cadf059e93815239598eaa05ccb77b4c3768bba64736f6c634300080b0033",
  "immutableReferences": {},
  "source": "// SPDX-License-Identifier: MIT\npragma solidity >=0.4.22 <0.9.0;\n\nimport \"@chainlink/contracts/src/v0.8/interfaces/AggregatorV3Interface.sol\";\n\n\n    struct Transaction {\n        address receiver;\n        uint amount;\n        string action;\n        string comment;\n        string date;\n    }\n\ncontract Yape {\n\n    AggregatorV3Interface internal priceFeed;\n\n    address owner;\n    uint totalDonaciones;\n\n    mapping(address => Transaction[]) yapeos;\n    mapping(address => uint) donaciones;\n\n    event Transactions(address _fromAddress, address _toAddress, uint _ammount);\n    event Donations(address _fromAddress, uint _ammount);\n\n    constructor() {\n        owner = msg.sender;\n        priceFeed = AggregatorV3Interface(0x9326BFA02ADD2366b30bacB125260Af641031331);\n\n    }\n\n    modifier isOwner() {\n        require(msg.sender == owner, \"Tu no eres el owner\");\n        _;\n    }\n\n    function yapear(address payable receiver, string calldata comment, string calldata date) public payable {\n\n        require(msg.sender != receiver, \"No puedes yapearte a ti mismo\");\n        require(msg.value > 0, \"Tienes que enviar ethers\");\n\n        receiver.transfer(msg.value);\n\n        yapeos[msg.sender].push(Transaction(receiver, msg.value, \"-\", comment, date));\n        yapeos[receiver].push(Transaction(msg.sender, msg.value, \"+\", comment, date));\n\n        emit Transactions(msg.sender, receiver, msg.value);\n    }\n\n    function verYapeos() public view returns (Transaction[] memory) {\n        return yapeos[msg.sender];\n    }\n\n    function verDonaciones() isOwner public view returns (uint){\n        return totalDonaciones;\n    }\n\n    receive() external payable {\n        donaciones[msg.sender] +=msg.value;\n        totalDonaciones +=msg.value;\n        emit Donations(msg.sender, msg.value);\n    }\n\n    fallback() external payable {\n        //No deberia llegar ac\n    }\n\n    function getLatestPrice() public view returns (int) {\n        (\n        uint80 roundID,\n        int price,\n        uint startedAt,\n        uint timeStamp,\n        uint80 answeredInRound\n        ) = priceFeed.latestRoundData();\n        return price;\n    }\n\n}",
  "sourcePath": "/Users/martinsam16xyz/WebstormProjects/yape/contracts/Yape.sol",
  "compiler": {
    "name": "solc",
    "version": "0.8.11+commit.d7f03943.Emscripten.clang"
  },
  "schemaVersion": "3.4.4",
  "updatedAt": "2022-01-11T19:35:42.714Z",
  "networkType": "ethereum",
  "devdoc": {
    "kind": "dev",
    "methods": {},
    "version": 1
  },
  "userdoc": {
    "kind": "user",
    "methods": {},
    "version": 1
  }
}