{
  "contractName": "Yape",
  "abi": [
    {
      "inputs": [],
      "stateMutability": "nonpayable",
      "type": "constructor"
    },
    {
      "anonymous": false,
      "inputs": [
        {
          "indexed": false,
          "internalType": "address",
          "name": "_fromAddress",
          "type": "address"
        },
        {
          "indexed": false,
          "internalType": "uint256",
          "name": "_ammount",
          "type": "uint256"
        }
      ],
      "name": "Donations",
      "type": "event"
    },
    {
      "anonymous": false,
      "inputs": [
        {
          "indexed": false,
          "internalType": "address",
          "name": "_fromAddress",
          "type": "address"
        },
        {
          "indexed": false,
          "internalType": "address",
          "name": "_toAddress",
          "type": "address"
        },
        {
          "indexed": false,
          "internalType": "uint256",
          "name": "_ammount",
          "type": "uint256"
        }
      ],
      "name": "Transactions",
      "type": "event"
    },
    {
      "stateMutability": "payable",
      "type": "fallback",
      "payable": true
    },
    {
      "stateMutability": "payable",
      "type": "receive",
      "payable": true
    },
    {
      "inputs": [
        {
          "internalType": "address payable",
          "name": "receiver",
          "type": "address"
        },
        {
          "internalType": "string",
          "name": "comment",
          "type": "string"
        },
        {
          "internalType": "string",
          "name": "date",
          "type": "string"
        }
      ],
      "name": "yapear",
      "outputs": [],
      "stateMutability": "payable",
      "type": "function",
      "payable": true
    },
    {
      "inputs": [],
      "name": "verYapeos",
      "outputs": [
        {
          "components": [
            {
              "internalType": "address",
              "name": "receiver",
              "type": "address"
            },
            {
              "internalType": "uint256",
              "name": "amount",
              "type": "uint256"
            },
            {
              "internalType": "string",
              "name": "action",
              "type": "string"
            },
            {
              "internalType": "string",
              "name": "comment",
              "type": "string"
            },
            {
              "internalType": "string",
              "name": "date",
              "type": "string"
            }
          ],
          "internalType": "struct Transaction[]",
          "name": "",
          "type": "tuple[]"
        }
      ],
      "stateMutability": "view",
      "type": "function",
      "constant": true
    },
    {
      "inputs": [],
      "name": "verDonaciones",
      "outputs": [
        {
          "internalType": "uint256",
          "name": "",
          "type": "uint256"
        }
      ],
      "stateMutability": "view",
      "type": "function",
      "constant": true
    },
    {
      "inputs": [],
      "name": "getLatestPrice",
      "outputs": [
        {
          "internalType": "int256",
          "name": "",
          "type": "int256"
        }
      ],
      "stateMutability": "view",
      "type": "function",
      "constant": true
    },
    {
      "inputs": [],
      "name": "getOwner",
      "outputs": [
        {
          "internalType": "address",
          "name": "",
          "type": "address"
        }
      ],
      "stateMutability": "view",
      "type": "function",
      "constant": true
    }
  ],
  "bytecode": "0x608060405234801561001057600080fd5b5033600160006101000a81548173ffffffffffffffffffffffffffffffffffffffff021916908373ffffffffffffffffffffffffffffffffffffffff160217905550739326bfa02add2366b30bacb125260af6410313316000806101000a81548173ffffffffffffffffffffffffffffffffffffffff021916908373ffffffffffffffffffffffffffffffffffffffff16021790555061144a806100b56000396000f3fe60806040526004361061004e5760003560e01c80637162944c146100ff578063893d20e81461012a5780638e15f47314610155578063c362a1ba14610180578063e01e02a71461019c576100fd565b366100fd5734600460003373ffffffffffffffffffffffffffffffffffffffff1673ffffffffffffffffffffffffffffffffffffffff16815260200190815260200160002060008282546100a29190610c19565b9250508190555034600260008282546100bb9190610c19565b925050819055507fe8898688a9f933d39fa5968d1776b9316efa3c48a94281d228b0f99405ab1c0433346040516100f3929190610cbf565b60405180910390a1005b005b34801561010b57600080fd5b506101146101c7565b6040516101219190610ce8565b60405180910390f35b34801561013657600080fd5b5061013f610261565b60405161014c9190610d03565b60405180910390f35b34801561016157600080fd5b5061016a61028b565b6040516101779190610d37565b60405180910390f35b61019a60048036038101906101959190610dff565b610338565b005b3480156101a857600080fd5b506101b161088b565b6040516101be9190611091565b60405180910390f35b6000600160009054906101000a900473ffffffffffffffffffffffffffffffffffffffff1673ffffffffffffffffffffffffffffffffffffffff163373ffffffffffffffffffffffffffffffffffffffff1614610259576040517f08c379a000000000000000000000000000000000000000000000000000000000815260040161025090611110565b60405180910390fd5b600254905090565b6000600160009054906101000a900473ffffffffffffffffffffffffffffffffffffffff16905090565b60008060008060008060008054906101000a900473ffffffffffffffffffffffffffffffffffffffff1673ffffffffffffffffffffffffffffffffffffffff1663feaf968c6040518163ffffffff1660e01b815260040160a060405180830381865afa1580156102ff573d6000803e3d6000fd5b505050506040513d601f19601f8201168201806040525081019061032391906111ca565b94509450945094509450839550505050505090565b8473ffffffffffffffffffffffffffffffffffffffff163373ffffffffffffffffffffffffffffffffffffffff1614156103a7576040517f08c379a000000000000000000000000000000000000000000000000000000000815260040161039e90611291565b60405180910390fd5b600034116103ea576040517f08c379a00000000000000000000000000000000000000000000000000000000081526004016103e1906112fd565b60405180910390fd5b8473ffffffffffffffffffffffffffffffffffffffff166108fc349081150290604051600060405180830381858888f19350505050158015610430573d6000803e3d6000fd5b50600360003373ffffffffffffffffffffffffffffffffffffffff1673ffffffffffffffffffffffffffffffffffffffff1681526020019081526020016000206040518060a001604052808773ffffffffffffffffffffffffffffffffffffffff1681526020013481526020016040518060400160405280600181526020017f2d00000000000000000000000000000000000000000000000000000000000000815250815260200186868080601f016020809104026020016040519081016040528093929190818152602001838380828437600081840152601f19601f82011690508083019250505050505050815260200184848080601f016020809104026020016040519081016040528093929190818152602001838380828437600081840152601f19601f82011690508083019250505050505050815250908060018154018082558091505060019003906000526020600020906005020160009091909190915060008201518160000160006101000a81548173ffffffffffffffffffffffffffffffffffffffff021916908373ffffffffffffffffffffffffffffffffffffffff160217905550602082015181600101556040820151816002019080519060200190610600929190610b3d565b50606082015181600301908051906020019061061d929190610b3d565b50608082015181600401908051906020019061063a929190610b3d565b505050600360008673ffffffffffffffffffffffffffffffffffffffff1673ffffffffffffffffffffffffffffffffffffffff1681526020019081526020016000206040518060a001604052803373ffffffffffffffffffffffffffffffffffffffff1681526020013481526020016040518060400160405280600181526020017f2b00000000000000000000000000000000000000000000000000000000000000815250815260200186868080601f016020809104026020016040519081016040528093929190818152602001838380828437600081840152601f19601f82011690508083019250505050505050815260200184848080601f016020809104026020016040519081016040528093929190818152602001838380828437600081840152601f19601f82011690508083019250505050505050815250908060018154018082558091505060019003906000526020600020906005020160009091909190915060008201518160000160006101000a81548173ffffffffffffffffffffffffffffffffffffffff021916908373ffffffffffffffffffffffffffffffffffffffff16021790555060208201518160010155604082015181600201908051906020019061080c929190610b3d565b506060820151816003019080519060200190610829929190610b3d565b506080820151816004019080519060200190610846929190610b3d565b5050507f5efd36c7e364fdbed1ee340797506aea664ae79053901c90bfb600bc0a30a12733863460405161087c9392919061137c565b60405180910390a15050505050565b6060600360003373ffffffffffffffffffffffffffffffffffffffff1673ffffffffffffffffffffffffffffffffffffffff168152602001908152602001600020805480602002602001604051908101604052809291908181526020016000905b82821015610b3457838290600052602060002090600502016040518060a00160405290816000820160009054906101000a900473ffffffffffffffffffffffffffffffffffffffff1673ffffffffffffffffffffffffffffffffffffffff1673ffffffffffffffffffffffffffffffffffffffff1681526020016001820154815260200160028201805461097f906113e2565b80601f01602080910402602001604051908101604052809291908181526020018280546109ab906113e2565b80156109f85780601f106109cd576101008083540402835291602001916109f8565b820191906000526020600020905b8154815290600101906020018083116109db57829003601f168201915b50505050508152602001600382018054610a11906113e2565b80601f0160208091040260200160405190810160405280929190818152602001828054610a3d906113e2565b8015610a8a5780601f10610a5f57610100808354040283529160200191610a8a565b820191906000526020600020905b815481529060010190602001808311610a6d57829003601f168201915b50505050508152602001600482018054610aa3906113e2565b80601f0160208091040260200160405190810160405280929190818152602001828054610acf906113e2565b8015610b1c5780601f10610af157610100808354040283529160200191610b1c565b820191906000526020600020905b815481529060010190602001808311610aff57829003601f168201915b505050505081525050815260200190600101906108ec565b50505050905090565b828054610b49906113e2565b90600052602060002090601f016020900481019282610b6b5760008555610bb2565b82601f10610b8457805160ff1916838001178555610bb2565b82800160010185558215610bb2579182015b82811115610bb1578251825591602001919060010190610b96565b5b509050610bbf9190610bc3565b5090565b5b80821115610bdc576000816000905550600101610bc4565b5090565b6000819050919050565b7f4e487b7100000000000000000000000000000000000000000000000000000000600052601160045260246000fd5b6000610c2482610be0565b9150610c2f83610be0565b9250827fffffffffffffffffffffffffffffffffffffffffffffffffffffffffffffffff03821115610c6457610c63610bea565b5b828201905092915050565b600073ffffffffffffffffffffffffffffffffffffffff82169050919050565b6000610c9a82610c6f565b9050919050565b610caa81610c8f565b82525050565b610cb981610be0565b82525050565b6000604082019050610cd46000830185610ca1565b610ce16020830184610cb0565b9392505050565b6000602082019050610cfd6000830184610cb0565b92915050565b6000602082019050610d186000830184610ca1565b92915050565b6000819050919050565b610d3181610d1e565b82525050565b6000602082019050610d4c6000830184610d28565b92915050565b600080fd5b600080fd5b6000610d6782610c6f565b9050919050565b610d7781610d5c565b8114610d8257600080fd5b50565b600081359050610d9481610d6e565b92915050565b600080fd5b600080fd5b600080fd5b60008083601f840112610dbf57610dbe610d9a565b5b8235905067ffffffffffffffff811115610ddc57610ddb610d9f565b5b602083019150836001820283011115610df857610df7610da4565b5b9250929050565b600080600080600060608688031215610e1b57610e1a610d52565b5b6000610e2988828901610d85565b955050602086013567ffffffffffffffff811115610e4a57610e49610d57565b5b610e5688828901610da9565b9450945050604086013567ffffffffffffffff811115610e7957610e78610d57565b5b610e8588828901610da9565b92509250509295509295909350565b600081519050919050565b600082825260208201905092915050565b6000819050602082019050919050565b610ec981610c8f565b82525050565b610ed881610be0565b82525050565b600081519050919050565b600082825260208201905092915050565b60005b83811015610f18578082015181840152602081019050610efd565b83811115610f27576000848401525b50505050565b6000601f19601f8301169050919050565b6000610f4982610ede565b610f538185610ee9565b9350610f63818560208601610efa565b610f6c81610f2d565b840191505092915050565b600060a083016000830151610f8f6000860182610ec0565b506020830151610fa26020860182610ecf565b5060408301518482036040860152610fba8282610f3e565b91505060608301518482036060860152610fd48282610f3e565b91505060808301518482036080860152610fee8282610f3e565b9150508091505092915050565b60006110078383610f77565b905092915050565b6000602082019050919050565b600061102782610e94565b6110318185610e9f565b93508360208202850161104385610eb0565b8060005b8581101561107f57848403895281516110608582610ffb565b945061106b8361100f565b925060208a01995050600181019050611047565b50829750879550505050505092915050565b600060208201905081810360008301526110ab818461101c565b905092915050565b600082825260208201905092915050565b7f5475206e6f206572657320656c206f776e657200000000000000000000000000600082015250565b60006110fa6013836110b3565b9150611105826110c4565b602082019050919050565b60006020820190508181036000830152611129816110ed565b9050919050565b600069ffffffffffffffffffff82169050919050565b61114f81611130565b811461115a57600080fd5b50565b60008151905061116c81611146565b92915050565b61117b81610d1e565b811461118657600080fd5b50565b60008151905061119881611172565b92915050565b6111a781610be0565b81146111b257600080fd5b50565b6000815190506111c48161119e565b92915050565b600080600080600060a086880312156111e6576111e5610d52565b5b60006111f48882890161115d565b955050602061120588828901611189565b9450506040611216888289016111b5565b9350506060611227888289016111b5565b92505060806112388882890161115d565b9150509295509295909350565b7f4e6f207075656465732079617065617274652061207469206d69736d6f000000600082015250565b600061127b601d836110b3565b915061128682611245565b602082019050919050565b600060208201905081810360008301526112aa8161126e565b9050919050565b7f5469656e65732071756520656e76696172206574686572730000000000000000600082015250565b60006112e76018836110b3565b91506112f2826112b1565b602082019050919050565b60006020820190508181036000830152611316816112da565b9050919050565b6000819050919050565b600061134261133d61133884610c6f565b61131d565b610c6f565b9050919050565b600061135482611327565b9050919050565b600061136682611349565b9050919050565b6113768161135b565b82525050565b60006060820190506113916000830186610ca1565b61139e602083018561136d565b6113ab6040830184610cb0565b949350505050565b7f4e487b7100000000000000000000000000000000000000000000000000000000600052602260045260246000fd5b600060028204905060018216806113fa57607f821691505b6020821081141561140e5761140d6113b3565b5b5091905056fea264697066735822122062f66f24bc0e275639b72416843ec0fb489af109012cffaa23dadde27f3891e164736f6c634300080b0033",
  "immutableReferences": {},
  "source": "// SPDX-License-Identifier: MIT\npragma solidity >=0.4.22 <0.9.0;\n\nimport \"@chainlink/contracts/src/v0.8/interfaces/AggregatorV3Interface.sol\";\n\n    struct Transaction {\n        address receiver;\n        uint amount;\n        string action;\n        string comment;\n        string date;\n    }\n\ncontract Yape {\n\n    AggregatorV3Interface internal priceFeed;\n\n    address owner;\n    uint totalDonaciones;\n\n    mapping(address => Transaction[]) yapeos;\n    mapping(address => uint) donaciones;\n\n    event Transactions(address _fromAddress, address _toAddress, uint _ammount);\n    event Donations(address _fromAddress, uint _ammount);\n\n    constructor() {\n        owner = msg.sender;\n        priceFeed = AggregatorV3Interface(0x9326BFA02ADD2366b30bacB125260Af641031331);\n    }\n\n    modifier isOwner() {\n        require(msg.sender == owner, \"Tu no eres el owner\");\n        _;\n    }\n\n    function yapear(address payable receiver, string calldata comment, string calldata date) public payable {\n\n        require(msg.sender != receiver, \"No puedes yapearte a ti mismo\");\n        require(msg.value > 0, \"Tienes que enviar ethers\");\n\n        receiver.transfer(msg.value);\n\n        yapeos[msg.sender].push(Transaction(receiver, msg.value, \"-\", comment, date));\n        yapeos[receiver].push(Transaction(msg.sender, msg.value, \"+\", comment, date));\n\n        emit Transactions(msg.sender, receiver, msg.value);\n    }\n\n    function verYapeos() public view returns (Transaction[] memory) {\n        return yapeos[msg.sender];\n    }\n\n    function verDonaciones() isOwner public view returns (uint){\n        return totalDonaciones;\n    }\n\n    receive() external payable {\n        donaciones[msg.sender] +=msg.value;\n        totalDonaciones +=msg.value;\n        emit Donations(msg.sender, msg.value);\n    }\n\n    fallback() external payable {\n        //No deberia llegar ac\n    }\n\n    function getLatestPrice() public view returns (int) {\n        (\n        uint80 roundID,\n        int price,\n        uint startedAt,\n        uint timeStamp,\n        uint80 answeredInRound\n        ) = priceFeed.latestRoundData();\n        return price;\n    }\n\n    function getOwner() external view returns (address) {\n        return owner;\n    }\n\n}",
  "sourcePath": "/Users/martinsam16xyz/WebstormProjects/yape/contracts/Yape.sol",
  "compiler": {
    "name": "solc",
    "version": "0.8.11+commit.d7f03943.Emscripten.clang"
  },
  "schemaVersion": "3.4.4",
  "updatedAt": "2022-01-12T21:36:29.340Z",
  "networkType": "ethereum",
  "devdoc": {
    "kind": "dev",
    "methods": {},
    "version": 1
  },
  "userdoc": {
    "kind": "user",
    "methods": {},
    "version": 1
  }
}