{
  "contractName": "Yape",
  "abi": [
    {
      "inputs": [],
      "stateMutability": "nonpayable",
      "type": "constructor"
    },
    {
      "anonymous": false,
      "inputs": [
        {
          "indexed": false,
          "internalType": "address",
          "name": "_fromAddress",
          "type": "address"
        },
        {
          "indexed": false,
          "internalType": "uint256",
          "name": "_ammount",
          "type": "uint256"
        }
      ],
      "name": "Donations",
      "type": "event"
    },
    {
      "anonymous": false,
      "inputs": [
        {
          "indexed": false,
          "internalType": "address",
          "name": "_fromAddress",
          "type": "address"
        },
        {
          "indexed": false,
          "internalType": "address",
          "name": "_toAddress",
          "type": "address"
        },
        {
          "indexed": false,
          "internalType": "uint256",
          "name": "_ammount",
          "type": "uint256"
        }
      ],
      "name": "Transactions",
      "type": "event"
    },
    {
      "stateMutability": "payable",
      "type": "fallback"
    },
    {
      "stateMutability": "payable",
      "type": "receive"
    },
    {
      "inputs": [
        {
          "internalType": "address payable",
          "name": "receiver",
          "type": "address"
        },
        {
          "internalType": "string",
          "name": "comment",
          "type": "string"
        },
        {
          "internalType": "string",
          "name": "date",
          "type": "string"
        }
      ],
      "name": "yapear",
      "outputs": [],
      "stateMutability": "payable",
      "type": "function"
    },
    {
      "inputs": [],
      "name": "verYapeos",
      "outputs": [
        {
          "components": [
            {
              "internalType": "address",
              "name": "receiver",
              "type": "address"
            },
            {
              "internalType": "uint256",
              "name": "amount",
              "type": "uint256"
            },
            {
              "internalType": "string",
              "name": "action",
              "type": "string"
            },
            {
              "internalType": "string",
              "name": "comment",
              "type": "string"
            },
            {
              "internalType": "string",
              "name": "date",
              "type": "string"
            }
          ],
          "internalType": "struct Transaction[]",
          "name": "",
          "type": "tuple[]"
        }
      ],
      "stateMutability": "view",
      "type": "function"
    },
    {
      "inputs": [],
      "name": "verDonaciones",
      "outputs": [
        {
          "internalType": "uint256",
          "name": "",
          "type": "uint256"
        }
      ],
      "stateMutability": "view",
      "type": "function"
    },
    {
      "inputs": [],
      "name": "getOwner",
      "outputs": [
        {
          "internalType": "address",
          "name": "",
          "type": "address"
        }
      ],
      "stateMutability": "view",
      "type": "function"
    }
  ],
  "bytecode": "0x608060405234801561001057600080fd5b50336000806101000a81548173ffffffffffffffffffffffffffffffffffffffff021916908373ffffffffffffffffffffffffffffffffffffffff1602179055506111da806100606000396000f3fe6080604052600436106100435760003560e01c80637162944c146100f4578063893d20e81461011f578063c362a1ba1461014a578063e01e02a714610166576100f2565b366100f25734600360003373ffffffffffffffffffffffffffffffffffffffff1673ffffffffffffffffffffffffffffffffffffffff16815260200190815260200160002060008282546100979190610a22565b9250508190555034600160008282546100b09190610a22565b925050819055507fe8898688a9f933d39fa5968d1776b9316efa3c48a94281d228b0f99405ab1c0433346040516100e8929190610ac8565b60405180910390a1005b005b34801561010057600080fd5b50610109610191565b6040516101169190610af1565b60405180910390f35b34801561012b57600080fd5b5061013461022a565b6040516101419190610b0c565b60405180910390f35b610164600480360381019061015f9190610cbf565b610253565b005b34801561017257600080fd5b5061017b610694565b6040516101889190610f36565b60405180910390f35b60008060009054906101000a900473ffffffffffffffffffffffffffffffffffffffff1673ffffffffffffffffffffffffffffffffffffffff163373ffffffffffffffffffffffffffffffffffffffff1614610222576040517f08c379a000000000000000000000000000000000000000000000000000000000815260040161021990610fb5565b60405180910390fd5b600154905090565b60008060009054906101000a900473ffffffffffffffffffffffffffffffffffffffff16905090565b8273ffffffffffffffffffffffffffffffffffffffff163373ffffffffffffffffffffffffffffffffffffffff1614156102c2576040517f08c379a00000000000000000000000000000000000000000000000000000000081526004016102b990611021565b60405180910390fd5b60003411610305576040517f08c379a00000000000000000000000000000000000000000000000000000000081526004016102fc9061108d565b60405180910390fd5b8273ffffffffffffffffffffffffffffffffffffffff166108fc349081150290604051600060405180830381858888f1935050505015801561034b573d6000803e3d6000fd5b50600260003373ffffffffffffffffffffffffffffffffffffffff1673ffffffffffffffffffffffffffffffffffffffff1681526020019081526020016000206040518060a001604052808573ffffffffffffffffffffffffffffffffffffffff1681526020013481526020016040518060400160405280600181526020017f2d00000000000000000000000000000000000000000000000000000000000000815250815260200184815260200183815250908060018154018082558091505060019003906000526020600020906005020160009091909190915060008201518160000160006101000a81548173ffffffffffffffffffffffffffffffffffffffff021916908373ffffffffffffffffffffffffffffffffffffffff160217905550602082015181600101556040820151816002019080519060200190610493929190610946565b5060608201518160030190805190602001906104b0929190610946565b5060808201518160040190805190602001906104cd929190610946565b505050600260008473ffffffffffffffffffffffffffffffffffffffff1673ffffffffffffffffffffffffffffffffffffffff1681526020019081526020016000206040518060a001604052803373ffffffffffffffffffffffffffffffffffffffff1681526020013481526020016040518060400160405280600181526020017f2b00000000000000000000000000000000000000000000000000000000000000815250815260200184815260200183815250908060018154018082558091505060019003906000526020600020906005020160009091909190915060008201518160000160006101000a81548173ffffffffffffffffffffffffffffffffffffffff021916908373ffffffffffffffffffffffffffffffffffffffff160217905550602082015181600101556040820151816002019080519060200190610617929190610946565b506060820151816003019080519060200190610634929190610946565b506080820151816004019080519060200190610651929190610946565b5050507f5efd36c7e364fdbed1ee340797506aea664ae79053901c90bfb600bc0a30a1273384346040516106879392919061110c565b60405180910390a1505050565b6060600260003373ffffffffffffffffffffffffffffffffffffffff1673ffffffffffffffffffffffffffffffffffffffff168152602001908152602001600020805480602002602001604051908101604052809291908181526020016000905b8282101561093d57838290600052602060002090600502016040518060a00160405290816000820160009054906101000a900473ffffffffffffffffffffffffffffffffffffffff1673ffffffffffffffffffffffffffffffffffffffff1673ffffffffffffffffffffffffffffffffffffffff1681526020016001820154815260200160028201805461078890611172565b80601f01602080910402602001604051908101604052809291908181526020018280546107b490611172565b80156108015780601f106107d657610100808354040283529160200191610801565b820191906000526020600020905b8154815290600101906020018083116107e457829003601f168201915b5050505050815260200160038201805461081a90611172565b80601f016020809104026020016040519081016040528092919081815260200182805461084690611172565b80156108935780601f1061086857610100808354040283529160200191610893565b820191906000526020600020905b81548152906001019060200180831161087657829003601f168201915b505050505081526020016004820180546108ac90611172565b80601f01602080910402602001604051908101604052809291908181526020018280546108d890611172565b80156109255780601f106108fa57610100808354040283529160200191610925565b820191906000526020600020905b81548152906001019060200180831161090857829003601f168201915b505050505081525050815260200190600101906106f5565b50505050905090565b82805461095290611172565b90600052602060002090601f01602090048101928261097457600085556109bb565b82601f1061098d57805160ff19168380011785556109bb565b828001600101855582156109bb579182015b828111156109ba57825182559160200191906001019061099f565b5b5090506109c891906109cc565b5090565b5b808211156109e55760008160009055506001016109cd565b5090565b6000819050919050565b7f4e487b7100000000000000000000000000000000000000000000000000000000600052601160045260246000fd5b6000610a2d826109e9565b9150610a38836109e9565b9250827fffffffffffffffffffffffffffffffffffffffffffffffffffffffffffffffff03821115610a6d57610a6c6109f3565b5b828201905092915050565b600073ffffffffffffffffffffffffffffffffffffffff82169050919050565b6000610aa382610a78565b9050919050565b610ab381610a98565b82525050565b610ac2816109e9565b82525050565b6000604082019050610add6000830185610aaa565b610aea6020830184610ab9565b9392505050565b6000602082019050610b066000830184610ab9565b92915050565b6000602082019050610b216000830184610aaa565b92915050565b6000604051905090565b600080fd5b600080fd5b6000610b4682610a78565b9050919050565b610b5681610b3b565b8114610b6157600080fd5b50565b600081359050610b7381610b4d565b92915050565b600080fd5b600080fd5b6000601f19601f8301169050919050565b7f4e487b7100000000000000000000000000000000000000000000000000000000600052604160045260246000fd5b610bcc82610b83565b810181811067ffffffffffffffff82111715610beb57610bea610b94565b5b80604052505050565b6000610bfe610b27565b9050610c0a8282610bc3565b919050565b600067ffffffffffffffff821115610c2a57610c29610b94565b5b610c3382610b83565b9050602081019050919050565b82818337600083830152505050565b6000610c62610c5d84610c0f565b610bf4565b905082815260208101848484011115610c7e57610c7d610b7e565b5b610c89848285610c40565b509392505050565b600082601f830112610ca657610ca5610b79565b5b8135610cb6848260208601610c4f565b91505092915050565b600080600060608486031215610cd857610cd7610b31565b5b6000610ce686828701610b64565b935050602084013567ffffffffffffffff811115610d0757610d06610b36565b5b610d1386828701610c91565b925050604084013567ffffffffffffffff811115610d3457610d33610b36565b5b610d4086828701610c91565b9150509250925092565b600081519050919050565b600082825260208201905092915050565b6000819050602082019050919050565b610d7f81610a98565b82525050565b610d8e816109e9565b82525050565b600081519050919050565b600082825260208201905092915050565b60005b83811015610dce578082015181840152602081019050610db3565b83811115610ddd576000848401525b50505050565b6000610dee82610d94565b610df88185610d9f565b9350610e08818560208601610db0565b610e1181610b83565b840191505092915050565b600060a083016000830151610e346000860182610d76565b506020830151610e476020860182610d85565b5060408301518482036040860152610e5f8282610de3565b91505060608301518482036060860152610e798282610de3565b91505060808301518482036080860152610e938282610de3565b9150508091505092915050565b6000610eac8383610e1c565b905092915050565b6000602082019050919050565b6000610ecc82610d4a565b610ed68185610d55565b935083602082028501610ee885610d66565b8060005b85811015610f245784840389528151610f058582610ea0565b9450610f1083610eb4565b925060208a01995050600181019050610eec565b50829750879550505050505092915050565b60006020820190508181036000830152610f508184610ec1565b905092915050565b600082825260208201905092915050565b7f5475206e6f206572657320656c206f776e657200000000000000000000000000600082015250565b6000610f9f601383610f58565b9150610faa82610f69565b602082019050919050565b60006020820190508181036000830152610fce81610f92565b9050919050565b7f4e6f207075656465732079617065617274652061207469206d69736d6f000000600082015250565b600061100b601d83610f58565b915061101682610fd5565b602082019050919050565b6000602082019050818103600083015261103a81610ffe565b9050919050565b7f5469656e65732071756520656e76696172206574686572730000000000000000600082015250565b6000611077601883610f58565b915061108282611041565b602082019050919050565b600060208201905081810360008301526110a68161106a565b9050919050565b6000819050919050565b60006110d26110cd6110c884610a78565b6110ad565b610a78565b9050919050565b60006110e4826110b7565b9050919050565b60006110f6826110d9565b9050919050565b611106816110eb565b82525050565b60006060820190506111216000830186610aaa565b61112e60208301856110fd565b61113b6040830184610ab9565b949350505050565b7f4e487b7100000000000000000000000000000000000000000000000000000000600052602260045260246000fd5b6000600282049050600182168061118a57607f821691505b6020821081141561119e5761119d611143565b5b5091905056fea26469706673582212205ddd4f1376286c3fc95b514af18a01dba3e70746cff0dce9c868f7c318d6ee0364736f6c634300080b0033",
  "immutableReferences": {},
  "source": "// SPDX-License-Identifier: MIT\r\npragma solidity >=0.4.22 <0.9.0;\r\n\r\n    struct Transaction {\r\n        address receiver;\r\n        uint amount;\r\n        string action;\r\n        string comment;\r\n        string date;\r\n    }\r\n\r\ncontract Yape {\r\n\r\n    address owner;\r\n    uint totalDonaciones;\r\n\r\n    mapping(address => Transaction[]) yapeos;\r\n    mapping(address => uint) donaciones;\r\n\r\n    event Transactions(address _fromAddress, address _toAddress, uint _ammount);\r\n    event Donations(address _fromAddress, uint _ammount);\r\n\r\n    constructor() {\r\n        owner = msg.sender;\r\n    }\r\n\r\n    modifier isOwner() {\r\n        require(msg.sender == owner, \"Tu no eres el owner\");\r\n        _;\r\n    }\r\n\r\n    function yapear(address payable receiver, string memory comment, string memory date) public payable {\r\n\r\n        require(msg.sender != receiver, \"No puedes yapearte a ti mismo\");\r\n        require(msg.value > 0, \"Tienes que enviar ethers\");\r\n\r\n        receiver.transfer(msg.value);\r\n\r\n        yapeos[msg.sender].push(Transaction(receiver, msg.value, \"-\", comment, date));\r\n        yapeos[receiver].push(Transaction(msg.sender, msg.value, \"+\", comment, date));\r\n\r\n        emit Transactions(msg.sender, receiver, msg.value);\r\n    }\r\n\r\n    function verYapeos() public view returns (Transaction[] memory) {\r\n        return yapeos[msg.sender];\r\n    }\r\n\r\n    function verDonaciones() isOwner public view returns (uint){\r\n        return totalDonaciones;\r\n    }\r\n\r\n    receive() external payable {\r\n        donaciones[msg.sender] +=msg.value;\r\n        totalDonaciones +=msg.value;\r\n        emit Donations(msg.sender, msg.value);\r\n    }\r\n\r\n    fallback() external payable {\r\n        //No deberia llegar ac\r\n    }\r\n\r\n    function getOwner() external view returns (address) {\r\n        return owner;\r\n    }\r\n\r\n}",
  "sourcePath": "C:\\Users\\martinsam16xyz\\Documents\\GitHub\\yape\\contracts\\Yape.sol",
  "compiler": {
    "name": "solc",
    "version": "0.8.11+commit.d7f03943.Emscripten.clang"
  },
  "schemaVersion": "3.4.4",
  "updatedAt": "2022-07-11T16:33:02.403Z",
  "devdoc": {
    "kind": "dev",
    "methods": {},
    "version": 1
  },
  "userdoc": {
    "kind": "user",
    "methods": {},
    "version": 1
  }
}