{
  "contractName": "Yape",
  "abi": [
    {
      "inputs": [],
      "stateMutability": "nonpayable",
      "type": "constructor"
    },
    {
      "anonymous": false,
      "inputs": [
        {
          "indexed": false,
          "internalType": "address",
          "name": "_fromAddress",
          "type": "address"
        },
        {
          "indexed": false,
          "internalType": "uint256",
          "name": "_ammount",
          "type": "uint256"
        }
      ],
      "name": "Donations",
      "type": "event"
    },
    {
      "anonymous": false,
      "inputs": [
        {
          "indexed": false,
          "internalType": "address",
          "name": "_fromAddress",
          "type": "address"
        },
        {
          "indexed": false,
          "internalType": "address",
          "name": "_toAddress",
          "type": "address"
        },
        {
          "indexed": false,
          "internalType": "uint256",
          "name": "_ammount",
          "type": "uint256"
        }
      ],
      "name": "Transactions",
      "type": "event"
    },
    {
      "stateMutability": "payable",
      "type": "fallback",
      "payable": true
    },
    {
      "stateMutability": "payable",
      "type": "receive",
      "payable": true
    },
    {
      "inputs": [
        {
          "internalType": "uint256",
          "name": "_key",
          "type": "uint256"
        },
        {
          "internalType": "address",
          "name": "_value",
          "type": "address"
        }
      ],
      "name": "addOnEnumerableMap",
      "outputs": [],
      "stateMutability": "nonpayable",
      "type": "function"
    },
    {
      "inputs": [
        {
          "internalType": "uint256",
          "name": "_key",
          "type": "uint256"
        }
      ],
      "name": "getFromEnumerableMap",
      "outputs": [
        {
          "internalType": "address",
          "name": "",
          "type": "address"
        }
      ],
      "stateMutability": "view",
      "type": "function",
      "constant": true
    },
    {
      "inputs": [
        {
          "internalType": "address payable",
          "name": "receiver",
          "type": "address"
        },
        {
          "internalType": "string",
          "name": "comment",
          "type": "string"
        },
        {
          "internalType": "string",
          "name": "date",
          "type": "string"
        }
      ],
      "name": "yapear",
      "outputs": [],
      "stateMutability": "payable",
      "type": "function",
      "payable": true
    },
    {
      "inputs": [],
      "name": "verYapeos",
      "outputs": [
        {
          "components": [
            {
              "internalType": "address",
              "name": "receiver",
              "type": "address"
            },
            {
              "internalType": "uint256",
              "name": "amount",
              "type": "uint256"
            },
            {
              "internalType": "string",
              "name": "action",
              "type": "string"
            },
            {
              "internalType": "string",
              "name": "comment",
              "type": "string"
            },
            {
              "internalType": "string",
              "name": "date",
              "type": "string"
            }
          ],
          "internalType": "struct Transaction[]",
          "name": "",
          "type": "tuple[]"
        }
      ],
      "stateMutability": "view",
      "type": "function",
      "constant": true
    },
    {
      "inputs": [],
      "name": "verDonaciones",
      "outputs": [
        {
          "internalType": "uint256",
          "name": "",
          "type": "uint256"
        }
      ],
      "stateMutability": "view",
      "type": "function",
      "constant": true
    },
    {
      "inputs": [],
      "name": "getLatestPrice",
      "outputs": [
        {
          "internalType": "int256",
          "name": "",
          "type": "int256"
        }
      ],
      "stateMutability": "view",
      "type": "function",
      "constant": true
    },
    {
      "inputs": [],
      "name": "getOwner",
      "outputs": [
        {
          "internalType": "address",
          "name": "",
          "type": "address"
        }
      ],
      "stateMutability": "view",
      "type": "function",
      "constant": true
    }
  ],
  "bytecode": "0x608060405234801561001057600080fd5b5033600160006101000a81548173ffffffffffffffffffffffffffffffffffffffff021916908373ffffffffffffffffffffffffffffffffffffffff160217905550739326bfa02add2366b30bacb125260af6410313316000806101000a81548173ffffffffffffffffffffffffffffffffffffffff021916908373ffffffffffffffffffffffffffffffffffffffff160217905550611812806100b56000396000f3fe6080604052600436106100745760003560e01c8063893d20e81161004e578063893d20e8146101b65780638e15f473146101e1578063c362a1ba1461020c578063e01e02a71461022857610123565b80636400b71214610125578063640629ce1461014e5780637162944c1461018b57610123565b366101235734600460003373ffffffffffffffffffffffffffffffffffffffff1673ffffffffffffffffffffffffffffffffffffffff16815260200190815260200160002060008282546100c89190610ec7565b9250508190555034600260008282546100e19190610ec7565b925050819055507fe8898688a9f933d39fa5968d1776b9316efa3c48a94281d228b0f99405ab1c043334604051610119929190610f6d565b60405180910390a1005b005b34801561013157600080fd5b5061014c60048036038101906101479190610ff8565b610253565b005b34801561015a57600080fd5b5061017560048036038101906101709190611038565b61026e565b6040516101829190611065565b60405180910390f35b34801561019757600080fd5b506101a061028b565b6040516101ad9190611080565b60405180910390f35b3480156101c257600080fd5b506101cb610325565b6040516101d89190611065565b60405180910390f35b3480156101ed57600080fd5b506101f661034f565b60405161020391906110b4565b60405180910390f35b61022660048036038101906102219190611172565b6103fc565b005b34801561023457600080fd5b5061023d61094f565b60405161024a9190611404565b60405180910390f35b61026982826005610c019092919063ffffffff16565b505050565b6000610284826005610c3690919063ffffffff16565b9050919050565b6000600160009054906101000a900473ffffffffffffffffffffffffffffffffffffffff1673ffffffffffffffffffffffffffffffffffffffff163373ffffffffffffffffffffffffffffffffffffffff161461031d576040517f08c379a000000000000000000000000000000000000000000000000000000000815260040161031490611483565b60405180910390fd5b600254905090565b6000600160009054906101000a900473ffffffffffffffffffffffffffffffffffffffff16905090565b60008060008060008060008054906101000a900473ffffffffffffffffffffffffffffffffffffffff1673ffffffffffffffffffffffffffffffffffffffff1663feaf968c6040518163ffffffff1660e01b815260040160a060405180830381865afa1580156103c3573d6000803e3d6000fd5b505050506040513d601f19601f820116820180604052508101906103e79190611526565b94509450945094509450839550505050505090565b8473ffffffffffffffffffffffffffffffffffffffff163373ffffffffffffffffffffffffffffffffffffffff16141561046b576040517f08c379a0000000000000000000000000000000000000000000000000000000008152600401610462906115ed565b60405180910390fd5b600034116104ae576040517f08c379a00000000000000000000000000000000000000000000000000000000081526004016104a590611659565b60405180910390fd5b8473ffffffffffffffffffffffffffffffffffffffff166108fc349081150290604051600060405180830381858888f193505050501580156104f4573d6000803e3d6000fd5b50600360003373ffffffffffffffffffffffffffffffffffffffff1673ffffffffffffffffffffffffffffffffffffffff1681526020019081526020016000206040518060a001604052808773ffffffffffffffffffffffffffffffffffffffff1681526020013481526020016040518060400160405280600181526020017f2d00000000000000000000000000000000000000000000000000000000000000815250815260200186868080601f016020809104026020016040519081016040528093929190818152602001838380828437600081840152601f19601f82011690508083019250505050505050815260200184848080601f016020809104026020016040519081016040528093929190818152602001838380828437600081840152601f19601f82011690508083019250505050505050815250908060018154018082558091505060019003906000526020600020906005020160009091909190915060008201518160000160006101000a81548173ffffffffffffffffffffffffffffffffffffffff021916908373ffffffffffffffffffffffffffffffffffffffff1602179055506020820151816001015560408201518160020190805190602001906106c4929190610deb565b5060608201518160030190805190602001906106e1929190610deb565b5060808201518160040190805190602001906106fe929190610deb565b505050600360008673ffffffffffffffffffffffffffffffffffffffff1673ffffffffffffffffffffffffffffffffffffffff1681526020019081526020016000206040518060a001604052803373ffffffffffffffffffffffffffffffffffffffff1681526020013481526020016040518060400160405280600181526020017f2b00000000000000000000000000000000000000000000000000000000000000815250815260200186868080601f016020809104026020016040519081016040528093929190818152602001838380828437600081840152601f19601f82011690508083019250505050505050815260200184848080601f016020809104026020016040519081016040528093929190818152602001838380828437600081840152601f19601f82011690508083019250505050505050815250908060018154018082558091505060019003906000526020600020906005020160009091909190915060008201518160000160006101000a81548173ffffffffffffffffffffffffffffffffffffffff021916908373ffffffffffffffffffffffffffffffffffffffff1602179055506020820151816001015560408201518160020190805190602001906108d0929190610deb565b5060608201518160030190805190602001906108ed929190610deb565b50608082015181600401908051906020019061090a929190610deb565b5050507f5efd36c7e364fdbed1ee340797506aea664ae79053901c90bfb600bc0a30a127338634604051610940939291906116d8565b60405180910390a15050505050565b6060600360003373ffffffffffffffffffffffffffffffffffffffff1673ffffffffffffffffffffffffffffffffffffffff168152602001908152602001600020805480602002602001604051908101604052809291908181526020016000905b82821015610bf857838290600052602060002090600502016040518060a00160405290816000820160009054906101000a900473ffffffffffffffffffffffffffffffffffffffff1673ffffffffffffffffffffffffffffffffffffffff1673ffffffffffffffffffffffffffffffffffffffff16815260200160018201548152602001600282018054610a439061173e565b80601f0160208091040260200160405190810160405280929190818152602001828054610a6f9061173e565b8015610abc5780601f10610a9157610100808354040283529160200191610abc565b820191906000526020600020905b815481529060010190602001808311610a9f57829003601f168201915b50505050508152602001600382018054610ad59061173e565b80601f0160208091040260200160405190810160405280929190818152602001828054610b019061173e565b8015610b4e5780601f10610b2357610100808354040283529160200191610b4e565b820191906000526020600020905b815481529060010190602001808311610b3157829003601f168201915b50505050508152602001600482018054610b679061173e565b80601f0160208091040260200160405190810160405280929190818152602001828054610b939061173e565b8015610be05780601f10610bb557610100808354040283529160200191610be0565b820191906000526020600020905b815481529060010190602001808311610bc357829003601f168201915b505050505081525050815260200190600101906109b0565b50505050905090565b6000610c2d846000018460001b8473ffffffffffffffffffffffffffffffffffffffff1660001b610c53565b90509392505050565b6000610c48836000018360001b610c8e565b60001c905092915050565b60008184600201600085815260200190815260200160002081905550610c858385600001610d0a90919063ffffffff16565b90509392505050565b6000808360020160008481526020019081526020016000205490506000801b81141580610cc15750610cc08484610d21565b5b610d00576040517f08c379a0000000000000000000000000000000000000000000000000000000008152600401610cf7906117bc565b60405180910390fd5b8091505092915050565b6000610d198360000183610d41565b905092915050565b6000610d398284600001610db190919063ffffffff16565b905092915050565b6000610d4d8383610dc8565b610da6578260000182908060018154018082558091505060019003906000526020600020016000909190919091505582600001805490508360010160008481526020019081526020016000208190555060019050610dab565b600090505b92915050565b6000610dc08360000183610dc8565b905092915050565b600080836001016000848152602001908152602001600020541415905092915050565b828054610df79061173e565b90600052602060002090601f016020900481019282610e195760008555610e60565b82601f10610e3257805160ff1916838001178555610e60565b82800160010185558215610e60579182015b82811115610e5f578251825591602001919060010190610e44565b5b509050610e6d9190610e71565b5090565b5b80821115610e8a576000816000905550600101610e72565b5090565b6000819050919050565b7f4e487b7100000000000000000000000000000000000000000000000000000000600052601160045260246000fd5b6000610ed282610e8e565b9150610edd83610e8e565b9250827fffffffffffffffffffffffffffffffffffffffffffffffffffffffffffffffff03821115610f1257610f11610e98565b5b828201905092915050565b600073ffffffffffffffffffffffffffffffffffffffff82169050919050565b6000610f4882610f1d565b9050919050565b610f5881610f3d565b82525050565b610f6781610e8e565b82525050565b6000604082019050610f826000830185610f4f565b610f8f6020830184610f5e565b9392505050565b600080fd5b600080fd5b610fa981610e8e565b8114610fb457600080fd5b50565b600081359050610fc681610fa0565b92915050565b610fd581610f3d565b8114610fe057600080fd5b50565b600081359050610ff281610fcc565b92915050565b6000806040838503121561100f5761100e610f96565b5b600061101d85828601610fb7565b925050602061102e85828601610fe3565b9150509250929050565b60006020828403121561104e5761104d610f96565b5b600061105c84828501610fb7565b91505092915050565b600060208201905061107a6000830184610f4f565b92915050565b60006020820190506110956000830184610f5e565b92915050565b6000819050919050565b6110ae8161109b565b82525050565b60006020820190506110c960008301846110a5565b92915050565b60006110da82610f1d565b9050919050565b6110ea816110cf565b81146110f557600080fd5b50565b600081359050611107816110e1565b92915050565b600080fd5b600080fd5b600080fd5b60008083601f8401126111325761113161110d565b5b8235905067ffffffffffffffff81111561114f5761114e611112565b5b60208301915083600182028301111561116b5761116a611117565b5b9250929050565b60008060008060006060868803121561118e5761118d610f96565b5b600061119c888289016110f8565b955050602086013567ffffffffffffffff8111156111bd576111bc610f9b565b5b6111c98882890161111c565b9450945050604086013567ffffffffffffffff8111156111ec576111eb610f9b565b5b6111f88882890161111c565b92509250509295509295909350565b600081519050919050565b600082825260208201905092915050565b6000819050602082019050919050565b61123c81610f3d565b82525050565b61124b81610e8e565b82525050565b600081519050919050565b600082825260208201905092915050565b60005b8381101561128b578082015181840152602081019050611270565b8381111561129a576000848401525b50505050565b6000601f19601f8301169050919050565b60006112bc82611251565b6112c6818561125c565b93506112d681856020860161126d565b6112df816112a0565b840191505092915050565b600060a0830160008301516113026000860182611233565b5060208301516113156020860182611242565b506040830151848203604086015261132d82826112b1565b9150506060830151848203606086015261134782826112b1565b9150506080830151848203608086015261136182826112b1565b9150508091505092915050565b600061137a83836112ea565b905092915050565b6000602082019050919050565b600061139a82611207565b6113a48185611212565b9350836020820285016113b685611223565b8060005b858110156113f257848403895281516113d3858261136e565b94506113de83611382565b925060208a019950506001810190506113ba565b50829750879550505050505092915050565b6000602082019050818103600083015261141e818461138f565b905092915050565b600082825260208201905092915050565b7f5475206e6f206572657320656c206f776e657200000000000000000000000000600082015250565b600061146d601383611426565b915061147882611437565b602082019050919050565b6000602082019050818103600083015261149c81611460565b9050919050565b600069ffffffffffffffffffff82169050919050565b6114c2816114a3565b81146114cd57600080fd5b50565b6000815190506114df816114b9565b92915050565b6114ee8161109b565b81146114f957600080fd5b50565b60008151905061150b816114e5565b92915050565b60008151905061152081610fa0565b92915050565b600080600080600060a0868803121561154257611541610f96565b5b6000611550888289016114d0565b9550506020611561888289016114fc565b945050604061157288828901611511565b935050606061158388828901611511565b9250506080611594888289016114d0565b9150509295509295909350565b7f4e6f207075656465732079617065617274652061207469206d69736d6f000000600082015250565b60006115d7601d83611426565b91506115e2826115a1565b602082019050919050565b60006020820190508181036000830152611606816115ca565b9050919050565b7f5469656e65732071756520656e76696172206574686572730000000000000000600082015250565b6000611643601883611426565b915061164e8261160d565b602082019050919050565b6000602082019050818103600083015261167281611636565b9050919050565b6000819050919050565b600061169e61169961169484610f1d565b611679565b610f1d565b9050919050565b60006116b082611683565b9050919050565b60006116c2826116a5565b9050919050565b6116d2816116b7565b82525050565b60006060820190506116ed6000830186610f4f565b6116fa60208301856116c9565b6117076040830184610f5e565b949350505050565b7f4e487b7100000000000000000000000000000000000000000000000000000000600052602260045260246000fd5b6000600282049050600182168061175657607f821691505b6020821081141561176a5761176961170f565b5b50919050565b7f456e756d657261626c654d61703a206e6f6e6578697374656e74206b65790000600082015250565b60006117a6601e83611426565b91506117b182611770565b602082019050919050565b600060208201905081810360008301526117d581611799565b905091905056fea26469706673582212209ad261cc6bd8b9ebcc2370e5aba1ba4fa117b634253d1a07b30d6eb02343b80d64736f6c634300080b0033",
  "immutableReferences": {},
  "source": "// SPDX-License-Identifier: MIT\npragma solidity >=0.4.22 <0.9.0;\n\nimport \"@chainlink/contracts/src/v0.8/interfaces/AggregatorV3Interface.sol\";\nimport \"@openzeppelin/contracts/utils/structs/EnumerableMap.sol\";\n\n    struct Transaction {\n        address receiver;\n        uint amount;\n        string action;\n        string comment;\n        string date;\n    }\n\ncontract Yape {\n\n    AggregatorV3Interface internal priceFeed;\n\n    address owner;\n    uint totalDonaciones;\n\n    mapping(address => Transaction[]) yapeos;\n    mapping(address => uint) donaciones;\n\n    using EnumerableMap for EnumerableMap.UintToAddressMap;\n    EnumerableMap.UintToAddressMap private enumerableMap;\n\n    event Transactions(address _fromAddress, address _toAddress, uint _ammount);\n    event Donations(address _fromAddress, uint _ammount);\n\n    constructor() {\n        owner = msg.sender;\n        priceFeed = AggregatorV3Interface(0x9326BFA02ADD2366b30bacB125260Af641031331);\n    }\n\n    modifier isOwner() {\n        require(msg.sender == owner, \"Tu no eres el owner\");\n        _;\n    }\n\n    function addOnEnumerableMap(uint _key, address _value) public{\n        enumerableMap.set(_key, _value);\n    }\n\n    function getFromEnumerableMap(uint _key) public view returns (address){\n        return enumerableMap.get(_key);\n    }\n\n    function yapear(address payable receiver, string calldata comment, string calldata date) public payable {\n\n        require(msg.sender != receiver, \"No puedes yapearte a ti mismo\");\n        require(msg.value > 0, \"Tienes que enviar ethers\");\n\n        receiver.transfer(msg.value);\n\n        yapeos[msg.sender].push(Transaction(receiver, msg.value, \"-\", comment, date));\n        yapeos[receiver].push(Transaction(msg.sender, msg.value, \"+\", comment, date));\n\n        emit Transactions(msg.sender, receiver, msg.value);\n    }\n\n    function verYapeos() public view returns (Transaction[] memory) {\n        return yapeos[msg.sender];\n    }\n\n    function verDonaciones() isOwner public view returns (uint){\n        return totalDonaciones;\n    }\n\n    receive() external payable {\n        donaciones[msg.sender] +=msg.value;\n        totalDonaciones +=msg.value;\n        emit Donations(msg.sender, msg.value);\n    }\n\n    fallback() external payable {\n        //No deberia llegar ac\n    }\n\n    function getLatestPrice() public view returns (int) {\n        (\n        uint80 roundID,\n        int price,\n        uint startedAt,\n        uint timeStamp,\n        uint80 answeredInRound\n        ) = priceFeed.latestRoundData();\n        return price;\n    }\n\n    function getOwner() external view returns (address) {\n        return owner;\n    }\n\n}",
  "sourcePath": "/Users/martinsam16xyz/WebstormProjects/yape/contracts/Yape.sol",
  "compiler": {
    "name": "solc",
    "version": "0.8.11+commit.d7f03943.Emscripten.clang"
  },
  "schemaVersion": "3.4.4",
  "updatedAt": "2022-01-13T15:22:35.731Z",
  "networkType": "ethereum",
  "devdoc": {
    "kind": "dev",
    "methods": {},
    "version": 1
  },
  "userdoc": {
    "kind": "user",
    "methods": {},
    "version": 1
  }
}