{
  "contractName": "Yape",
  "abi": [
    {
      "inputs": [],
      "stateMutability": "nonpayable",
      "type": "constructor"
    },
    {
      "anonymous": false,
      "inputs": [
        {
          "indexed": false,
          "internalType": "address",
          "name": "_fromAddress",
          "type": "address"
        },
        {
          "indexed": false,
          "internalType": "uint256",
          "name": "_ammount",
          "type": "uint256"
        }
      ],
      "name": "Donations",
      "type": "event"
    },
    {
      "anonymous": false,
      "inputs": [
        {
          "indexed": false,
          "internalType": "address",
          "name": "_fromAddress",
          "type": "address"
        },
        {
          "indexed": false,
          "internalType": "address",
          "name": "_toAddress",
          "type": "address"
        },
        {
          "indexed": false,
          "internalType": "uint256",
          "name": "_ammount",
          "type": "uint256"
        }
      ],
      "name": "Transactions",
      "type": "event"
    },
    {
      "stateMutability": "payable",
      "type": "fallback",
      "payable": true
    },
    {
      "stateMutability": "payable",
      "type": "receive",
      "payable": true
    },
    {
      "inputs": [
        {
          "internalType": "address payable",
          "name": "receiver",
          "type": "address"
        },
        {
          "internalType": "string",
          "name": "comment",
          "type": "string"
        },
        {
          "internalType": "string",
          "name": "date",
          "type": "string"
        }
      ],
      "name": "yapear",
      "outputs": [],
      "stateMutability": "payable",
      "type": "function",
      "payable": true
    },
    {
      "inputs": [
        {
          "internalType": "address",
          "name": "userAddress",
          "type": "address"
        },
        {
          "internalType": "string",
          "name": "userAlias",
          "type": "string"
        }
      ],
      "name": "addAlias",
      "outputs": [],
      "stateMutability": "nonpayable",
      "type": "function"
    },
    {
      "inputs": [],
      "name": "verYapeos",
      "outputs": [
        {
          "components": [
            {
              "internalType": "address",
              "name": "receiver",
              "type": "address"
            },
            {
              "internalType": "uint256",
              "name": "amount",
              "type": "uint256"
            },
            {
              "internalType": "string",
              "name": "action",
              "type": "string"
            },
            {
              "internalType": "string",
              "name": "comment",
              "type": "string"
            },
            {
              "internalType": "string",
              "name": "date",
              "type": "string"
            }
          ],
          "internalType": "struct Transaction[]",
          "name": "",
          "type": "tuple[]"
        }
      ],
      "stateMutability": "view",
      "type": "function",
      "constant": true
    },
    {
      "inputs": [],
      "name": "verDonaciones",
      "outputs": [
        {
          "internalType": "uint256",
          "name": "",
          "type": "uint256"
        }
      ],
      "stateMutability": "view",
      "type": "function",
      "constant": true
    },
    {
      "inputs": [
        {
          "internalType": "address",
          "name": "userAddress",
          "type": "address"
        }
      ],
      "name": "viewAlias",
      "outputs": [
        {
          "internalType": "string",
          "name": "",
          "type": "string"
        }
      ],
      "stateMutability": "view",
      "type": "function",
      "constant": true
    },
    {
      "inputs": [],
      "name": "getOwner",
      "outputs": [
        {
          "internalType": "address",
          "name": "",
          "type": "address"
        }
      ],
      "stateMutability": "view",
      "type": "function",
      "constant": true
    }
  ],
  "bytecode": "0x608060405234801561001057600080fd5b50336000806101000a81548173ffffffffffffffffffffffffffffffffffffffff021916908373ffffffffffffffffffffffffffffffffffffffff16021790555061148f806100606000396000f3fe6080604052600436106100595760003560e01c806346d0eb601461010a5780637162944c14610133578063893d20e81461015e578063c362a1ba14610189578063e01e02a7146101a5578063ea868509146101d057610108565b366101085734600360003373ffffffffffffffffffffffffffffffffffffffff1673ffffffffffffffffffffffffffffffffffffffff16815260200190815260200160002060008282546100ad9190610bc7565b9250508190555034600160008282546100c69190610bc7565b925050819055507fe8898688a9f933d39fa5968d1776b9316efa3c48a94281d228b0f99405ab1c0433346040516100fe929190610c6d565b60405180910390a1005b005b34801561011657600080fd5b50610131600480360381019061012c9190610e1c565b61020d565b005b34801561013f57600080fd5b50610148610265565b6040516101559190610e78565b60405180910390f35b34801561016a57600080fd5b506101736102fe565b6040516101809190610e93565b60405180910390f35b6101a3600480360381019061019e9190610eec565b610327565b005b3480156101b157600080fd5b506101ba610768565b6040516101c79190611163565b60405180910390f35b3480156101dc57600080fd5b506101f760048036038101906101f29190611185565b610a1a565b60405161020491906111fc565b60405180910390f35b80600460008473ffffffffffffffffffffffffffffffffffffffff1673ffffffffffffffffffffffffffffffffffffffff1681526020019081526020016000209080519060200190610260929190610aeb565b505050565b60008060009054906101000a900473ffffffffffffffffffffffffffffffffffffffff1673ffffffffffffffffffffffffffffffffffffffff163373ffffffffffffffffffffffffffffffffffffffff16146102f6576040517f08c379a00000000000000000000000000000000000000000000000000000000081526004016102ed9061126a565b60405180910390fd5b600154905090565b60008060009054906101000a900473ffffffffffffffffffffffffffffffffffffffff16905090565b8273ffffffffffffffffffffffffffffffffffffffff163373ffffffffffffffffffffffffffffffffffffffff161415610396576040517f08c379a000000000000000000000000000000000000000000000000000000000815260040161038d906112d6565b60405180910390fd5b600034116103d9576040517f08c379a00000000000000000000000000000000000000000000000000000000081526004016103d090611342565b60405180910390fd5b8273ffffffffffffffffffffffffffffffffffffffff166108fc349081150290604051600060405180830381858888f1935050505015801561041f573d6000803e3d6000fd5b50600260003373ffffffffffffffffffffffffffffffffffffffff1673ffffffffffffffffffffffffffffffffffffffff1681526020019081526020016000206040518060a001604052808573ffffffffffffffffffffffffffffffffffffffff1681526020013481526020016040518060400160405280600181526020017f2d00000000000000000000000000000000000000000000000000000000000000815250815260200184815260200183815250908060018154018082558091505060019003906000526020600020906005020160009091909190915060008201518160000160006101000a81548173ffffffffffffffffffffffffffffffffffffffff021916908373ffffffffffffffffffffffffffffffffffffffff160217905550602082015181600101556040820151816002019080519060200190610567929190610aeb565b506060820151816003019080519060200190610584929190610aeb565b5060808201518160040190805190602001906105a1929190610aeb565b505050600260008473ffffffffffffffffffffffffffffffffffffffff1673ffffffffffffffffffffffffffffffffffffffff1681526020019081526020016000206040518060a001604052803373ffffffffffffffffffffffffffffffffffffffff1681526020013481526020016040518060400160405280600181526020017f2b00000000000000000000000000000000000000000000000000000000000000815250815260200184815260200183815250908060018154018082558091505060019003906000526020600020906005020160009091909190915060008201518160000160006101000a81548173ffffffffffffffffffffffffffffffffffffffff021916908373ffffffffffffffffffffffffffffffffffffffff1602179055506020820151816001015560408201518160020190805190602001906106eb929190610aeb565b506060820151816003019080519060200190610708929190610aeb565b506080820151816004019080519060200190610725929190610aeb565b5050507f5efd36c7e364fdbed1ee340797506aea664ae79053901c90bfb600bc0a30a12733843460405161075b939291906113c1565b60405180910390a1505050565b6060600260003373ffffffffffffffffffffffffffffffffffffffff1673ffffffffffffffffffffffffffffffffffffffff168152602001908152602001600020805480602002602001604051908101604052809291908181526020016000905b82821015610a1157838290600052602060002090600502016040518060a00160405290816000820160009054906101000a900473ffffffffffffffffffffffffffffffffffffffff1673ffffffffffffffffffffffffffffffffffffffff1673ffffffffffffffffffffffffffffffffffffffff1681526020016001820154815260200160028201805461085c90611427565b80601f016020809104026020016040519081016040528092919081815260200182805461088890611427565b80156108d55780601f106108aa576101008083540402835291602001916108d5565b820191906000526020600020905b8154815290600101906020018083116108b857829003601f168201915b505050505081526020016003820180546108ee90611427565b80601f016020809104026020016040519081016040528092919081815260200182805461091a90611427565b80156109675780601f1061093c57610100808354040283529160200191610967565b820191906000526020600020905b81548152906001019060200180831161094a57829003601f168201915b5050505050815260200160048201805461098090611427565b80601f01602080910402602001604051908101604052809291908181526020018280546109ac90611427565b80156109f95780601f106109ce576101008083540402835291602001916109f9565b820191906000526020600020905b8154815290600101906020018083116109dc57829003601f168201915b505050505081525050815260200190600101906107c9565b50505050905090565b6060600460008373ffffffffffffffffffffffffffffffffffffffff1673ffffffffffffffffffffffffffffffffffffffff1681526020019081526020016000208054610a6690611427565b80601f0160208091040260200160405190810160405280929190818152602001828054610a9290611427565b8015610adf5780601f10610ab457610100808354040283529160200191610adf565b820191906000526020600020905b815481529060010190602001808311610ac257829003601f168201915b50505050509050919050565b828054610af790611427565b90600052602060002090601f016020900481019282610b195760008555610b60565b82601f10610b3257805160ff1916838001178555610b60565b82800160010185558215610b60579182015b82811115610b5f578251825591602001919060010190610b44565b5b509050610b6d9190610b71565b5090565b5b80821115610b8a576000816000905550600101610b72565b5090565b6000819050919050565b7f4e487b7100000000000000000000000000000000000000000000000000000000600052601160045260246000fd5b6000610bd282610b8e565b9150610bdd83610b8e565b9250827fffffffffffffffffffffffffffffffffffffffffffffffffffffffffffffffff03821115610c1257610c11610b98565b5b828201905092915050565b600073ffffffffffffffffffffffffffffffffffffffff82169050919050565b6000610c4882610c1d565b9050919050565b610c5881610c3d565b82525050565b610c6781610b8e565b82525050565b6000604082019050610c826000830185610c4f565b610c8f6020830184610c5e565b9392505050565b6000604051905090565b600080fd5b600080fd5b610cb381610c3d565b8114610cbe57600080fd5b50565b600081359050610cd081610caa565b92915050565b600080fd5b600080fd5b6000601f19601f8301169050919050565b7f4e487b7100000000000000000000000000000000000000000000000000000000600052604160045260246000fd5b610d2982610ce0565b810181811067ffffffffffffffff82111715610d4857610d47610cf1565b5b80604052505050565b6000610d5b610c96565b9050610d678282610d20565b919050565b600067ffffffffffffffff821115610d8757610d86610cf1565b5b610d9082610ce0565b9050602081019050919050565b82818337600083830152505050565b6000610dbf610dba84610d6c565b610d51565b905082815260208101848484011115610ddb57610dda610cdb565b5b610de6848285610d9d565b509392505050565b600082601f830112610e0357610e02610cd6565b5b8135610e13848260208601610dac565b91505092915050565b60008060408385031215610e3357610e32610ca0565b5b6000610e4185828601610cc1565b925050602083013567ffffffffffffffff811115610e6257610e61610ca5565b5b610e6e85828601610dee565b9150509250929050565b6000602082019050610e8d6000830184610c5e565b92915050565b6000602082019050610ea86000830184610c4f565b92915050565b6000610eb982610c1d565b9050919050565b610ec981610eae565b8114610ed457600080fd5b50565b600081359050610ee681610ec0565b92915050565b600080600060608486031215610f0557610f04610ca0565b5b6000610f1386828701610ed7565b935050602084013567ffffffffffffffff811115610f3457610f33610ca5565b5b610f4086828701610dee565b925050604084013567ffffffffffffffff811115610f6157610f60610ca5565b5b610f6d86828701610dee565b9150509250925092565b600081519050919050565b600082825260208201905092915050565b6000819050602082019050919050565b610fac81610c3d565b82525050565b610fbb81610b8e565b82525050565b600081519050919050565b600082825260208201905092915050565b60005b83811015610ffb578082015181840152602081019050610fe0565b8381111561100a576000848401525b50505050565b600061101b82610fc1565b6110258185610fcc565b9350611035818560208601610fdd565b61103e81610ce0565b840191505092915050565b600060a0830160008301516110616000860182610fa3565b5060208301516110746020860182610fb2565b506040830151848203604086015261108c8282611010565b915050606083015184820360608601526110a68282611010565b915050608083015184820360808601526110c08282611010565b9150508091505092915050565b60006110d98383611049565b905092915050565b6000602082019050919050565b60006110f982610f77565b6111038185610f82565b93508360208202850161111585610f93565b8060005b85811015611151578484038952815161113285826110cd565b945061113d836110e1565b925060208a01995050600181019050611119565b50829750879550505050505092915050565b6000602082019050818103600083015261117d81846110ee565b905092915050565b60006020828403121561119b5761119a610ca0565b5b60006111a984828501610cc1565b91505092915050565b600082825260208201905092915050565b60006111ce82610fc1565b6111d881856111b2565b93506111e8818560208601610fdd565b6111f181610ce0565b840191505092915050565b6000602082019050818103600083015261121681846111c3565b905092915050565b7f5475206e6f206572657320656c206f776e657200000000000000000000000000600082015250565b60006112546013836111b2565b915061125f8261121e565b602082019050919050565b6000602082019050818103600083015261128381611247565b9050919050565b7f4e6f207075656465732079617065617274652061207469206d69736d6f000000600082015250565b60006112c0601d836111b2565b91506112cb8261128a565b602082019050919050565b600060208201905081810360008301526112ef816112b3565b9050919050565b7f5469656e65732071756520656e76696172206574686572730000000000000000600082015250565b600061132c6018836111b2565b9150611337826112f6565b602082019050919050565b6000602082019050818103600083015261135b8161131f565b9050919050565b6000819050919050565b600061138761138261137d84610c1d565b611362565b610c1d565b9050919050565b60006113998261136c565b9050919050565b60006113ab8261138e565b9050919050565b6113bb816113a0565b82525050565b60006060820190506113d66000830186610c4f565b6113e360208301856113b2565b6113f06040830184610c5e565b949350505050565b7f4e487b7100000000000000000000000000000000000000000000000000000000600052602260045260246000fd5b6000600282049050600182168061143f57607f821691505b60208210811415611453576114526113f8565b5b5091905056fea26469706673582212203ba242c7cda2383ca7dbcb420aa0c13671b13fda1f2abacd28fc51960074305264736f6c634300080b0033",
  "immutableReferences": {},
  "source": "// SPDX-License-Identifier: MIT\r\npragma solidity >=0.4.22 <0.9.0;\r\n\r\n    struct Transaction {\r\n        address receiver;\r\n        uint amount;\r\n        string action;\r\n        string comment;\r\n        string date;\r\n    }\r\n\r\ncontract Yape {\r\n\r\n    address owner;\r\n    uint totalDonaciones;\r\n\r\n    mapping(address => Transaction[]) yapeos;\r\n    mapping(address => uint) donaciones;\r\n    mapping(address => string) aliasUsers;\r\n\r\n    event Transactions(address _fromAddress, address _toAddress, uint _ammount);\r\n    event Donations(address _fromAddress, uint _ammount);\r\n\r\n    constructor() {\r\n        owner = msg.sender;\r\n    }\r\n\r\n    modifier isOwner() {\r\n        require(msg.sender == owner, \"Tu no eres el owner\");\r\n        _;\r\n    }\r\n\r\n    function yapear(address payable receiver, string memory comment, string memory date) public payable {\r\n\r\n        require(msg.sender != receiver, \"No puedes yapearte a ti mismo\");\r\n        require(msg.value > 0, \"Tienes que enviar ethers\");\r\n\r\n        receiver.transfer(msg.value);\r\n\r\n        yapeos[msg.sender].push(Transaction(receiver, msg.value, \"-\", comment, date));\r\n        yapeos[receiver].push(Transaction(msg.sender, msg.value, \"+\", comment, date));\r\n\r\n        emit Transactions(msg.sender, receiver, msg.value);\r\n    }\r\n\r\n    function addAlias(address userAddress, string memory userAlias) external {\r\n        aliasUsers[userAddress] = userAlias;\r\n    }\r\n\r\n    function verYapeos() public view returns (Transaction[] memory) {\r\n        return yapeos[msg.sender];\r\n    }\r\n\r\n    function verDonaciones() isOwner public view returns (uint){\r\n        return totalDonaciones;\r\n    }\r\n\r\n    function viewAlias(address userAddress) public view returns (string memory){\r\n        return aliasUsers[userAddress];\r\n    }\r\n\r\n    receive() external payable {\r\n        donaciones[msg.sender] +=msg.value;\r\n        totalDonaciones +=msg.value;\r\n        emit Donations(msg.sender, msg.value);\r\n    }\r\n\r\n    fallback() external payable {\r\n        //No deberia llegar ac\r\n    }\r\n\r\n    function getOwner() external view returns (address) {\r\n        return owner;\r\n    }\r\n\r\n}",
  "sourcePath": "C:\\Users\\martinsam16xyz\\Documents\\GitHub\\yape\\contracts\\Yape.sol",
  "compiler": {
    "name": "solc",
    "version": "0.8.11+commit.d7f03943.Emscripten.clang"
  },
  "schemaVersion": "3.4.4",
  "updatedAt": "2022-07-15T16:12:47.710Z",
  "networkType": "ethereum",
  "devdoc": {
    "kind": "dev",
    "methods": {},
    "version": 1
  },
  "userdoc": {
    "kind": "user",
    "methods": {},
    "version": 1
  }
}